{
  "transactions": [
    {
      "hash": "0xa3ab85f74fd19d9a9a247555b9afca6f929634b4216de5fd1dfd8606dbf26976",
      "transactionType": "CALL",
      "contractName": null,
      "contractAddress": "0x9d29d33d4329640e96cc259e141838eb3eb2f1d9",
      "function": "flip(bool)",
      "arguments": [
        "false"
      ],
      "transaction": {
        "from": "0xa21039f3c7ba23c1fc14bbd59481e0e7f085c68d",
        "to": "0x9d29d33d4329640e96cc259e141838eb3eb2f1d9",
        "gas": "0x11efc",
        "value": "0x0",
        "input": "0x1d263f670000000000000000000000000000000000000000000000000000000000000000",
        "nonce": "0x3",
        "chainId": "0xaa36a7"
      },
      "additionalContracts": [],
      "isFixedGasLimit": false
    },
    {
      "hash": "0x14e919331466ed464bf1212d3cefdf65baf27ca5ed07e382d28bb161813fa607",
      "transactionType": "CREATE",
      "contractName": "Proxy",
      "contractAddress": "0xbc9f5b47b2f96c5dcb769a4703d3dcda1d56a369",
      "function": null,
      "arguments": [
        "0x9D29D33d4329640e96cC259E141838EB3EB2f1d9"
      ],
      "transaction": {
        "from": "0xa21039f3c7ba23c1fc14bbd59481e0e7f085c68d",
        "gas": "0x25e68",
        "value": "0x0",
        "input": "0x608060405234801561001057600080fd5b506040516101283803806101288339818101604052602081101561003357600080fd5b5051600080546001600160a01b039092166001600160a01b031990921691909117905560c4806100646000396000f3fe6080604052348015600f57600080fd5b506004361060285760003560e01c80639dfbccfe14602d575b600080fd5b60336035565b005b60008054604080516335f9cd5560e11b815290516001600160a01b0390921692636bf39aaa9260048084019382900301818387803b158015607557600080fd5b505af11580156088573d6000803e3d6000fd5b5050505056fea26469706673582212207ff1811f4e660d63eda769435319577a8a39dbc3274c5726fa16ea16d545d78364736f6c634300070000330000000000000000000000009d29d33d4329640e96cc259e141838eb3eb2f1d9",
        "nonce": "0x4",
        "chainId": "0xaa36a7"
      },
      "additionalContracts": [],
      "isFixedGasLimit": false
    },
    {
      "hash": "0xb45de52219cd984622e27613228dbf66d13fe6aaa462ab087540b69eecec4336",
      "transactionType": "CALL",
      "contractName": "Proxy",
      "contractAddress": "0xbc9f5b47b2f96c5dcb769a4703d3dcda1d56a369",
      "function": "addpoint()",
      "arguments": [],
      "transaction": {
        "from": "0xa21039f3c7ba23c1fc14bbd59481e0e7f085c68d",
        "to": "0xbc9f5b47b2f96c5dcb769a4703d3dcda1d56a369",
        "gas": "0x18be4",
        "value": "0x0",
        "input": "0x9dfbccfe",
        "nonce": "0x5",
        "chainId": "0xaa36a7"
      },
      "additionalContracts": [],
      "isFixedGasLimit": false
    },
    {
      "hash": "0xd86ef595a45a31bb92c6c20f912103eefcc43458341fa55ea1bd5662c903cdab",
      "transactionType": "CALL",
      "contractName": null,
      "contractAddress": "0x9d29d33d4329640e96cc259e141838eb3eb2f1d9",
      "function": "transfer(address,uint256)",
      "arguments": [
        "0x0000000000000000000000000000000000000000",
        "123"
      ],
      "transaction": {
        "from": "0xa21039f3c7ba23c1fc14bbd59481e0e7f085c68d",
        "to": "0x9d29d33d4329640e96cc259e141838eb3eb2f1d9",
        "gas": "0x1aa22",
        "value": "0x0",
        "input": "0xa9059cbb0000000000000000000000000000000000000000000000000000000000000000000000000000000000000000000000000000000000000000000000000000007b",
        "nonce": "0x6",
        "chainId": "0xaa36a7"
      },
      "additionalContracts": [],
      "isFixedGasLimit": false
    },
    {
      "hash": "0x53b069d427ab4a14f424b98d74df1baea43410267807d6ab770ede679d52c61f",
      "transactionType": "CALL",
      "contractName": null,
      "contractAddress": "0x9d29d33d4329640e96cc259e141838eb3eb2f1d9",
      "function": "sendKey(bytes16)",
      "arguments": [
        "0x4cded594c37730434fcf53dd25e29ab500000000000000000000000000000000"
      ],
      "transaction": {
        "from": "0xa21039f3c7ba23c1fc14bbd59481e0e7f085c68d",
        "to": "0x9d29d33d4329640e96cc259e141838eb3eb2f1d9",
        "gas": "0x12186",
        "value": "0x0",
        "input": "0x9d3ad91a4cded594c37730434fcf53dd25e29ab500000000000000000000000000000000",
        "nonce": "0x7",
        "chainId": "0xaa36a7"
      },
      "additionalContracts": [],
      "isFixedGasLimit": false
    },
    {
      "hash": "0xc525345e15a35f6dadfa7644161b0bfe499fad78098d4c792ff99905822a40a7",
      "transactionType": "CALL",
      "contractName": null,
      "contractAddress": "0x9d29d33d4329640e96cc259e141838eb3eb2f1d9",
      "function": "sendPassword(bytes32)",
      "arguments": [
        "0xde241fe7f783f2ed343248c0762dade0cf4eea6ed49dfe2f9f1267483c9eade8"
      ],
      "transaction": {
        "from": "0xa21039f3c7ba23c1fc14bbd59481e0e7f085c68d",
        "to": "0x9d29d33d4329640e96cc259e141838eb3eb2f1d9",
        "gas": "0x1220d",
        "value": "0x0",
        "input": "0x5c8d2c38de241fe7f783f2ed343248c0762dade0cf4eea6ed49dfe2f9f1267483c9eade8",
        "nonce": "0x8",
        "chainId": "0xaa36a7"
      },
      "additionalContracts": [],
      "isFixedGasLimit": false
    },
    {
      "hash": "0xfe1fdf4baec0e5ba70ae6086d814700f7cce35244036b754689dbed1e00ac36e",
      "transactionType": "CALL",
      "contractName": null,
      "contractAddress": "0x9d29d33d4329640e96cc259e141838eb3eb2f1d9",
      "function": "contribute()",
      "arguments": [],
      "transaction": {
        "from": "0xa21039f3c7ba23c1fc14bbd59481e0e7f085c68d",
        "to": "0x9d29d33d4329640e96cc259e141838eb3eb2f1d9",
        "gas": "0x10d13",
        "value": "0x3328b944c4000",
        "input": "0xd7bb99ba",
        "nonce": "0x9",
        "chainId": "0xaa36a7"
      },
      "additionalContracts": [],
      "isFixedGasLimit": false
    },
    {
      "hash": "0xda827294c14a1120e131aba8de5873dd4aba1f6a61e5e560adef0abc46af9a3d",
      "transactionType": "CALL",
      "contractName": null,
      "contractAddress": "0x9d29d33d4329640e96cc259e141838eb3eb2f1d9",
      "function": null,
      "arguments": null,
      "transaction": {
        "from": "0xa21039f3c7ba23c1fc14bbd59481e0e7f085c68d",
        "to": "0x9d29d33d4329640e96cc259e141838eb3eb2f1d9",
        "gas": "0x11e83",
        "value": "0x38d7ea4c68000",
        "input": "0x",
        "nonce": "0xa",
        "chainId": "0xaa36a7"
      },
      "additionalContracts": [],
      "isFixedGasLimit": false
    }
  ],
  "receipts": [
    {
      "status": "0x1",
      "cumulativeGasUsed": "0x853619",
      "logs": [],
      "logsBloom": "0x00000000000000000000000000000000000000000000000000000000000000000000000000000000000000000000000000000000000000000000000000000000000000000000000000000000000000000000000000000000000000000000000000000000000000000000000000000000000000000000000000000000000000000000000000000000000000000000000000000000000000000000000000000000000000000000000000000000000000000000000000000000000000000000000000000000000000000000000000000000000000000000000000000000000000000000000000000000000000000000000000000000000000000000000000000000",
      "type": "0x0",
      "transactionHash": "0xa3ab85f74fd19d9a9a247555b9afca6f929634b4216de5fd1dfd8606dbf26976",
      "transactionIndex": "0x66",
      "blockHash": "0x43ab49d10295e9f964ddab5b6fc1e009bcc8bcb90ef5a0607b195a44d8e91bc6",
      "blockNumber": "0x60fb12",
      "gasUsed": "0xcfc6",
      "effectiveGasPrice": "0x76b3b60a4",
      "from": "0xa21039f3c7ba23c1fc14bbd59481e0e7f085c68d",
      "to": "0x9d29d33d4329640e96cc259e141838eb3eb2f1d9",
      "contractAddress": null
    },
    {
      "status": "0x1",
      "cumulativeGasUsed": "0x8708a7",
      "logs": [],
      "logsBloom": "0x00000000000000000000000000000000000000000000000000000000000000000000000000000000000000000000000000000000000000000000000000000000000000000000000000000000000000000000000000000000000000000000000000000000000000000000000000000000000000000000000000000000000000000000000000000000000000000000000000000000000000000000000000000000000000000000000000000000000000000000000000000000000000000000000000000000000000000000000000000000000000000000000000000000000000000000000000000000000000000000000000000000000000000000000000000000",
      "type": "0x0",
      "transactionHash": "0x14e919331466ed464bf1212d3cefdf65baf27ca5ed07e382d28bb161813fa607",
      "transactionIndex": "0x67",
      "blockHash": "0x43ab49d10295e9f964ddab5b6fc1e009bcc8bcb90ef5a0607b195a44d8e91bc6",
      "blockNumber": "0x60fb12",
      "gasUsed": "0x1d28e",
      "effectiveGasPrice": "0x76b3b60a4",
      "from": "0xa21039f3c7ba23c1fc14bbd59481e0e7f085c68d",
      "to": null,
      "contractAddress": "0xbc9f5b47b2f96c5dcb769a4703d3dcda1d56a369"
    },
    {
      "status": "0x1",
      "cumulativeGasUsed": "0x882746",
      "logs": [],
      "logsBloom": "0x00000000000000000000000000000000000000000000000000000000000000000000000000000000000000000000000000000000000000000000000000000000000000000000000000000000000000000000000000000000000000000000000000000000000000000000000000000000000000000000000000000000000000000000000000000000000000000000000000000000000000000000000000000000000000000000000000000000000000000000000000000000000000000000000000000000000000000000000000000000000000000000000000000000000000000000000000000000000000000000000000000000000000000000000000000000",
      "type": "0x0",
      "transactionHash": "0xb45de52219cd984622e27613228dbf66d13fe6aaa462ab087540b69eecec4336",
      "transactionIndex": "0x68",
      "blockHash": "0x43ab49d10295e9f964ddab5b6fc1e009bcc8bcb90ef5a0607b195a44d8e91bc6",
      "blockNumber": "0x60fb12",
      "gasUsed": "0x11e9f",
      "effectiveGasPrice": "0x76b3b60a4",
      "from": "0xa21039f3c7ba23c1fc14bbd59481e0e7f085c68d",
      "to": "0xbc9f5b47b2f96c5dcb769a4703d3dcda1d56a369",
      "contractAddress": null
    },
    {
      "status": "0x1",
      "cumulativeGasUsed": "0x895bca",
      "logs": [],
      "logsBloom": "0x00000000000000000000000000000000000000000000000000000000000000000000000000000000000000000000000000000000000000000000000000000000000000000000000000000000000000000000000000000000000000000000000000000000000000000000000000000000000000000000000000000000000000000000000000000000000000000000000000000000000000000000000000000000000000000000000000000000000000000000000000000000000000000000000000000000000000000000000000000000000000000000000000000000000000000000000000000000000000000000000000000000000000000000000000000000",
      "type": "0x0",
      "transactionHash": "0xd86ef595a45a31bb92c6c20f912103eefcc43458341fa55ea1bd5662c903cdab",
      "transactionIndex": "0x69",
      "blockHash": "0x43ab49d10295e9f964ddab5b6fc1e009bcc8bcb90ef5a0607b195a44d8e91bc6",
      "blockNumber": "0x60fb12",
      "gasUsed": "0x13484",
      "effectiveGasPrice": "0x76b3b60a4",
      "from": "0xa21039f3c7ba23c1fc14bbd59481e0e7f085c68d",
      "to": "0x9d29d33d4329640e96cc259e141838eb3eb2f1d9",
      "contractAddress": null
    },
    {
      "status": "0x1",
      "cumulativeGasUsed": "0x8a2d67",
      "logs": [],
      "logsBloom": "0x00000000000000000000000000000000000000000000000000000000000000000000000000000000000000000000000000000000000000000000000000000000000000000000000000000000000000000000000000000000000000000000000000000000000000000000000000000000000000000000000000000000000000000000000000000000000000000000000000000000000000000000000000000000000000000000000000000000000000000000000000000000000000000000000000000000000000000000000000000000000000000000000000000000000000000000000000000000000000000000000000000000000000000000000000000000",
      "type": "0x0",
      "transactionHash": "0x53b069d427ab4a14f424b98d74df1baea43410267807d6ab770ede679d52c61f",
      "transactionIndex": "0x6a",
      "blockHash": "0x43ab49d10295e9f964ddab5b6fc1e009bcc8bcb90ef5a0607b195a44d8e91bc6",
      "blockNumber": "0x60fb12",
      "gasUsed": "0xd19d",
      "effectiveGasPrice": "0x76b3b60a4",
      "from": "0xa21039f3c7ba23c1fc14bbd59481e0e7f085c68d",
      "to": "0x9d29d33d4329640e96cc259e141838eb3eb2f1d9",
      "contractAddress": null
    },
    {
      "status": "0x1",
      "cumulativeGasUsed": "0x8aff66",
      "logs": [],
      "logsBloom": "0x00000000000000000000000000000000000000000000000000000000000000000000000000000000000000000000000000000000000000000000000000000000000000000000000000000000000000000000000000000000000000000000000000000000000000000000000000000000000000000000000000000000000000000000000000000000000000000000000000000000000000000000000000000000000000000000000000000000000000000000000000000000000000000000000000000000000000000000000000000000000000000000000000000000000000000000000000000000000000000000000000000000000000000000000000000000",
      "type": "0x0",
      "transactionHash": "0xc525345e15a35f6dadfa7644161b0bfe499fad78098d4c792ff99905822a40a7",
      "transactionIndex": "0x6b",
      "blockHash": "0x43ab49d10295e9f964ddab5b6fc1e009bcc8bcb90ef5a0607b195a44d8e91bc6",
      "blockNumber": "0x60fb12",
      "gasUsed": "0xd1ff",
      "effectiveGasPrice": "0x76b3b60a4",
      "from": "0xa21039f3c7ba23c1fc14bbd59481e0e7f085c68d",
      "to": "0x9d29d33d4329640e96cc259e141838eb3eb2f1d9",
      "contractAddress": null
    },
    {
      "status": "0x1",
      "cumulativeGasUsed": "0x8bc235",
      "logs": [],
      "logsBloom": "0x00000000000000000000000000000000000000000000000000000000000000000000000000000000000000000000000000000000000000000000000000000000000000000000000000000000000000000000000000000000000000000000000000000000000000000000000000000000000000000000000000000000000000000000000000000000000000000000000000000000000000000000000000000000000000000000000000000000000000000000000000000000000000000000000000000000000000000000000000000000000000000000000000000000000000000000000000000000000000000000000000000000000000000000000000000000",
      "type": "0x0",
      "transactionHash": "0xfe1fdf4baec0e5ba70ae6086d814700f7cce35244036b754689dbed1e00ac36e",
      "transactionIndex": "0x6c",
      "blockHash": "0x43ab49d10295e9f964ddab5b6fc1e009bcc8bcb90ef5a0607b195a44d8e91bc6",
      "blockNumber": "0x60fb12",
      "gasUsed": "0xc2cf",
      "effectiveGasPrice": "0x76b3b60a4",
      "from": "0xa21039f3c7ba23c1fc14bbd59481e0e7f085c68d",
      "to": "0x9d29d33d4329640e96cc259e141838eb3eb2f1d9",
      "contractAddress": null
    },
    {
      "status": "0x1",
      "cumulativeGasUsed": "0x8c91a4",
      "logs": [],
      "logsBloom": "0x00000000000000000000000000000000000000000000000000000000000000000000000000000000000000000000000000000000000000000000000000000000000000000000000000000000000000000000000000000000000000000000000000000000000000000000000000000000000000000000000000000000000000000000000000000000000000000000000000000000000000000000000000000000000000000000000000000000000000000000000000000000000000000000000000000000000000000000000000000000000000000000000000000000000000000000000000000000000000000000000000000000000000000000000000000000",
      "type": "0x0",
      "transactionHash": "0xda827294c14a1120e131aba8de5873dd4aba1f6a61e5e560adef0abc46af9a3d",
      "transactionIndex": "0x6d",
      "blockHash": "0x43ab49d10295e9f964ddab5b6fc1e009bcc8bcb90ef5a0607b195a44d8e91bc6",
      "blockNumber": "0x60fb12",
      "gasUsed": "0xcf6f",
      "effectiveGasPrice": "0x76b3b60a4",
      "from": "0xa21039f3c7ba23c1fc14bbd59481e0e7f085c68d",
      "to": "0x9d29d33d4329640e96cc259e141838eb3eb2f1d9",
      "contractAddress": null
    }
  ],
  "libraries": [],
  "pending": [],
  "returns": {},
  "timestamp": 1721645354,
  "chain": 11155111,
  "commit": "d8d8f58"
}