{
  "transactions": [
    {
      "hash": "0x34dd2783958f32596bf14288837de31fa4cec02aa528ec9d2dc02b89a084adaf",
      "transactionType": "CALL",
      "contractName": null,
      "contractAddress": "0x9d29d33d4329640e96cc259e141838eb3eb2f1d9",
      "function": "flip(bool)",
      "arguments": [
        "false"
      ],
      "transaction": {
        "from": "0xa21039f3c7ba23c1fc14bbd59481e0e7f085c68d",
        "to": "0x9d29d33d4329640e96cc259e141838eb3eb2f1d9",
        "gas": "0xce2d",
        "value": "0x0",
        "input": "0x1d263f670000000000000000000000000000000000000000000000000000000000000000",
        "nonce": "0x5e",
        "chainId": "0xaa36a7"
      },
      "additionalContracts": [],
      "isFixedGasLimit": false
    },
    {
      "hash": "0x1b84f94412bb74bab158e881b16449575d3c065d89c19e3a96ec37599b293006",
      "transactionType": "CREATE",
      "contractName": "Proxy",
      "contractAddress": "0xd6429c6e224df95d790f2649eb73caa57c5d7309",
      "function": null,
      "arguments": [
        "0x9D29D33d4329640e96cC259E141838EB3EB2f1d9"
      ],
      "transaction": {
        "from": "0xa21039f3c7ba23c1fc14bbd59481e0e7f085c68d",
        "gas": "0x25e68",
        "value": "0x0",
        "input": "0x608060405234801561001057600080fd5b506040516101283803806101288339818101604052602081101561003357600080fd5b5051600080546001600160a01b039092166001600160a01b031990921691909117905560c4806100646000396000f3fe6080604052348015600f57600080fd5b506004361060285760003560e01c80639dfbccfe14602d575b600080fd5b60336035565b005b60008054604080516335f9cd5560e11b815290516001600160a01b0390921692636bf39aaa9260048084019382900301818387803b158015607557600080fd5b505af11580156088573d6000803e3d6000fd5b5050505056fea26469706673582212207ff1811f4e660d63eda769435319577a8a39dbc3274c5726fa16ea16d545d78364736f6c634300070000330000000000000000000000009d29d33d4329640e96cc259e141838eb3eb2f1d9",
        "nonce": "0x5f",
        "chainId": "0xaa36a7"
      },
      "additionalContracts": [],
      "isFixedGasLimit": false
    },
    {
      "hash": "0x70bf7a47e540b118ff564ff74be66a1b78ef1a188def35d63fd0d9dabdd9c8af",
      "transactionType": "CALL",
      "contractName": "Proxy",
      "contractAddress": "0xd6429c6e224df95d790f2649eb73caa57c5d7309",
      "function": "addpoint()",
      "arguments": [],
      "transaction": {
        "from": "0xa21039f3c7ba23c1fc14bbd59481e0e7f085c68d",
        "to": "0xd6429c6e224df95d790f2649eb73caa57c5d7309",
        "gas": "0xb05f",
        "value": "0x0",
        "input": "0x9dfbccfe",
        "nonce": "0x60",
        "chainId": "0xaa36a7"
      },
      "additionalContracts": [],
      "isFixedGasLimit": false
    },
    {
      "hash": "0x9e11cbc54d6b28f8f55759df5f8a69db1a7b95cdab39825fd8ed6b96c05dc622",
      "transactionType": "CALL",
      "contractName": null,
      "contractAddress": "0x9d29d33d4329640e96cc259e141838eb3eb2f1d9",
      "function": "transfer(address,uint256)",
      "arguments": [
        "0x0000000000000000000000000000000000000000",
        "123"
      ],
      "transaction": {
        "from": "0xa21039f3c7ba23c1fc14bbd59481e0e7f085c68d",
        "to": "0x9d29d33d4329640e96cc259e141838eb3eb2f1d9",
        "gas": "0xc4d0",
        "value": "0x0",
        "input": "0xa9059cbb0000000000000000000000000000000000000000000000000000000000000000000000000000000000000000000000000000000000000000000000000000007b",
        "nonce": "0x61",
        "chainId": "0xaa36a7"
      },
      "additionalContracts": [],
      "isFixedGasLimit": false
    },
    {
      "hash": "0xe09c9247c26c8a099bdc4588b32864c1ea14519db5f3a22ef96e27ab94c46934",
      "transactionType": "CREATE",
      "contractName": "ExploitBuilding",
      "contractAddress": "0x201aba3c28b6ac126472969d700cf0af2d593451",
      "function": null,
      "arguments": [
        "0x9D29D33d4329640e96cC259E141838EB3EB2f1d9"
      ],
      "transaction": {
        "from": "0xa21039f3c7ba23c1fc14bbd59481e0e7f085c68d",
        "gas": "0x3627b",
        "value": "0x0",
        "input": "0x60806040526000805460ff60a01b1916905534801561001d57600080fd5b506040516102223803806102228339818101604052602081101561004057600080fd5b5051600080546001600160a01b039092166001600160a01b03199092169190911790556101b0806100726000396000f3fe608060405234801561001057600080fd5b506004361061004c5760003560e01c806335f738a7146100515780635f9a4bca1461006d57806399cb4fbc1461008a578063f95c9b1b146100ae575b600080fd5b6100596100b8565b604080519115158252519081900360200190f35b6100596004803603602081101561008357600080fd5b50356100c8565b610092610109565b604080516001600160a01b039092168252519081900360200190f35b6100b6610118565b005b600054600160a01b900460ff1681565b60008054600160a01b900460ff166100f357506000805460ff60a01b1916600160a01b178155610104565b506000805460ff60a01b1916905560015b919050565b6000546001600160a01b031681565b6000805460408051633b669c4d60e21b81526001600482015290516001600160a01b039092169263ed9a71349260248084019382900301818387803b15801561016057600080fd5b505af1158015610174573d6000803e3d6000fd5b5050505056fea264697066735822122094161002be9113b574ae909bcb62f8f70907b0483412aadef9494564490bbfd764736f6c634300070000330000000000000000000000009d29d33d4329640e96cc259e141838eb3eb2f1d9",
        "nonce": "0x62",
        "chainId": "0xaa36a7"
      },
      "additionalContracts": [],
      "isFixedGasLimit": false
    },
    {
      "hash": "0x92aa51b300da481900cddf08a3294a05be002ff9d9a6367331bfc96705d7249d",
      "transactionType": "CALL",
      "contractName": "ExploitBuilding",
      "contractAddress": "0x201aba3c28b6ac126472969d700cf0af2d593451",
      "function": "exploitGoTo()",
      "arguments": [],
      "transaction": {
        "from": "0xa21039f3c7ba23c1fc14bbd59481e0e7f085c68d",
        "to": "0x201aba3c28b6ac126472969d700cf0af2d593451",
        "gas": "0xd73b",
        "value": "0x0",
        "input": "0xf95c9b1b",
        "nonce": "0x63",
        "chainId": "0xaa36a7"
      },
      "additionalContracts": [],
      "isFixedGasLimit": false
    },
    {
      "hash": "0xa98fe02cc972a668a397416fd1f59c1550e1d61feadfd62fe41d2870eb79a8de",
      "transactionType": "CALL",
      "contractName": null,
      "contractAddress": "0x9d29d33d4329640e96cc259e141838eb3eb2f1d9",
      "function": "sendKey(bytes16)",
      "arguments": [
        "0x4cded594c37730434fcf53dd25e29ab500000000000000000000000000000000"
      ],
      "transaction": {
        "from": "0xa21039f3c7ba23c1fc14bbd59481e0e7f085c68d",
        "to": "0x9d29d33d4329640e96cc259e141838eb3eb2f1d9",
        "gas": "0xa187",
        "value": "0x0",
        "input": "0x9d3ad91a4cded594c37730434fcf53dd25e29ab500000000000000000000000000000000",
        "nonce": "0x64",
        "chainId": "0xaa36a7"
      },
      "additionalContracts": [],
      "isFixedGasLimit": false
    },
    {
      "hash": "0x9820edad87b785618e980621a6c1ff1dc3668ff94d5fb680c02ad96c8b75da6a",
      "transactionType": "CALL",
      "contractName": null,
      "contractAddress": "0x9d29d33d4329640e96cc259e141838eb3eb2f1d9",
      "function": "sendPassword(bytes32)",
      "arguments": [
        "0xde241fe7f783f2ed343248c0762dade0cf4eea6ed49dfe2f9f1267483c9eade8"
      ],
      "transaction": {
        "from": "0xa21039f3c7ba23c1fc14bbd59481e0e7f085c68d",
        "to": "0x9d29d33d4329640e96cc259e141838eb3eb2f1d9",
        "gas": "0x9914",
        "value": "0x0",
        "input": "0x5c8d2c38de241fe7f783f2ed343248c0762dade0cf4eea6ed49dfe2f9f1267483c9eade8",
        "nonce": "0x65",
        "chainId": "0xaa36a7"
      },
      "additionalContracts": [],
      "isFixedGasLimit": false
    },
    {
      "hash": "0x86c96105aa4f1e196c937c10e8f17dbbb567f9156fa55ae374baeabf40f960c0",
      "transactionType": "CALL",
      "contractName": null,
      "contractAddress": "0x9d29d33d4329640e96cc259e141838eb3eb2f1d9",
      "function": "contribute()",
      "arguments": [],
      "transaction": {
        "from": "0xa21039f3c7ba23c1fc14bbd59481e0e7f085c68d",
        "to": "0x9d29d33d4329640e96cc259e141838eb3eb2f1d9",
        "gas": "0xc12e",
        "value": "0x3328b944c4000",
        "input": "0xd7bb99ba",
        "nonce": "0x66",
        "chainId": "0xaa36a7"
      },
      "additionalContracts": [],
      "isFixedGasLimit": false
    },
    {
      "hash": "0x3aecb462a2b596176269f407ed0d09ce58a9c85f4d4a8c575db0520edb61c10d",
      "transactionType": "CALL",
      "contractName": null,
      "contractAddress": "0x9d29d33d4329640e96cc259e141838eb3eb2f1d9",
      "function": null,
      "arguments": null,
      "transaction": {
        "from": "0xa21039f3c7ba23c1fc14bbd59481e0e7f085c68d",
        "to": "0x9d29d33d4329640e96cc259e141838eb3eb2f1d9",
        "gas": "0x958a",
        "value": "0x38d7ea4c68000",
        "input": "0x",
        "nonce": "0x67",
        "chainId": "0xaa36a7"
      },
      "additionalContracts": [],
      "isFixedGasLimit": false
    }
  ],
  "receipts": [
    {
      "status": "0x1",
      "cumulativeGasUsed": "0xfcc86e",
      "logs": [],
      "logsBloom": "0x00000000000000000000000000000000000000000000000000000000000000000000000000000000000000000000000000000000000000000000000000000000000000000000000000000000000000000000000000000000000000000000000000000000000000000000000000000000000000000000000000000000000000000000000000000000000000000000000000000000000000000000000000000000000000000000000000000000000000000000000000000000000000000000000000000000000000000000000000000000000000000000000000000000000000000000000000000000000000000000000000000000000000000000000000000000",
      "type": "0x0",
      "transactionHash": "0x34dd2783958f32596bf14288837de31fa4cec02aa528ec9d2dc02b89a084adaf",
      "transactionIndex": "0x3c",
      "blockHash": "0xdc39d400698c38ffe49e1ad090d03370b72a0eb1b4b2653d30143db4ca365e06",
      "blockNumber": "0x60fbb1",
      "gasUsed": "0x8cfa",
      "effectiveGasPrice": "0x6dc06fadb",
      "from": "0xa21039f3c7ba23c1fc14bbd59481e0e7f085c68d",
      "to": "0x9d29d33d4329640e96cc259e141838eb3eb2f1d9",
      "contractAddress": null
    },
    {
      "status": "0x1",
      "cumulativeGasUsed": "0xfe9afc",
      "logs": [],
      "logsBloom": "0x00000000000000000000000000000000000000000000000000000000000000000000000000000000000000000000000000000000000000000000000000000000000000000000000000000000000000000000000000000000000000000000000000000000000000000000000000000000000000000000000000000000000000000000000000000000000000000000000000000000000000000000000000000000000000000000000000000000000000000000000000000000000000000000000000000000000000000000000000000000000000000000000000000000000000000000000000000000000000000000000000000000000000000000000000000000",
      "type": "0x0",
      "transactionHash": "0x1b84f94412bb74bab158e881b16449575d3c065d89c19e3a96ec37599b293006",
      "transactionIndex": "0x3d",
      "blockHash": "0xdc39d400698c38ffe49e1ad090d03370b72a0eb1b4b2653d30143db4ca365e06",
      "blockNumber": "0x60fbb1",
      "gasUsed": "0x1d28e",
      "effectiveGasPrice": "0x6dc06fadb",
      "from": "0xa21039f3c7ba23c1fc14bbd59481e0e7f085c68d",
      "to": null,
      "contractAddress": "0xd6429c6e224df95d790f2649eb73caa57c5d7309"
    },
    {
      "status": "0x1",
      "cumulativeGasUsed": "0xff1395",
      "logs": [],
      "logsBloom": "0x00000000000000000000000000000000000000000000000000000000000000000000000000000000000000000000000000000000000000000000000000000000000000000000000000000000000000000000000000000000000000000000000000000000000000000000000000000000000000000000000000000000000000000000000000000000000000000000000000000000000000000000000000000000000000000000000000000000000000000000000000000000000000000000000000000000000000000000000000000000000000000000000000000000000000000000000000000000000000000000000000000000000000000000000000000000",
      "type": "0x0",
      "transactionHash": "0x70bf7a47e540b118ff564ff74be66a1b78ef1a188def35d63fd0d9dabdd9c8af",
      "transactionIndex": "0x3e",
      "blockHash": "0xdc39d400698c38ffe49e1ad090d03370b72a0eb1b4b2653d30143db4ca365e06",
      "blockNumber": "0x60fbb1",
      "gasUsed": "0x7899",
      "effectiveGasPrice": "0x6dc06fadb",
      "from": "0xa21039f3c7ba23c1fc14bbd59481e0e7f085c68d",
      "to": "0xd6429c6e224df95d790f2649eb73caa57c5d7309",
      "contractAddress": null
    },
    {
      "status": "0x1",
      "cumulativeGasUsed": "0xffa213",
      "logs": [],
      "logsBloom": "0x00000000000000000000000000000000000000000000000000000000000000000000000000000000000000000000000000000000000000000000000000000000000000000000000000000000000000000000000000000000000000000000000000000000000000000000000000000000000000000000000000000000000000000000000000000000000000000000000000000000000000000000000000000000000000000000000000000000000000000000000000000000000000000000000000000000000000000000000000000000000000000000000000000000000000000000000000000000000000000000000000000000000000000000000000000000",
      "type": "0x0",
      "transactionHash": "0x9e11cbc54d6b28f8f55759df5f8a69db1a7b95cdab39825fd8ed6b96c05dc622",
      "transactionIndex": "0x3f",
      "blockHash": "0xdc39d400698c38ffe49e1ad090d03370b72a0eb1b4b2653d30143db4ca365e06",
      "blockNumber": "0x60fbb1",
      "gasUsed": "0x8e7e",
      "effectiveGasPrice": "0x6dc06fadb",
      "from": "0xa21039f3c7ba23c1fc14bbd59481e0e7f085c68d",
      "to": "0x9d29d33d4329640e96cc259e141838eb3eb2f1d9",
      "contractAddress": null
    },
    {
      "status": "0x1",
      "cumulativeGasUsed": "0x1023cbf",
      "logs": [],
      "logsBloom": "0x00000000000000000000000000000000000000000000000000000000000000000000000000000000000000000000000000000000000000000000000000000000000000000000000000000000000000000000000000000000000000000000000000000000000000000000000000000000000000000000000000000000000000000000000000000000000000000000000000000000000000000000000000000000000000000000000000000000000000000000000000000000000000000000000000000000000000000000000000000000000000000000000000000000000000000000000000000000000000000000000000000000000000000000000000000000",
      "type": "0x0",
      "transactionHash": "0xe09c9247c26c8a099bdc4588b32864c1ea14519db5f3a22ef96e27ab94c46934",
      "transactionIndex": "0x40",
      "blockHash": "0xdc39d400698c38ffe49e1ad090d03370b72a0eb1b4b2653d30143db4ca365e06",
      "blockNumber": "0x60fbb1",
      "gasUsed": "0x29aac",
      "effectiveGasPrice": "0x6dc06fadb",
      "from": "0xa21039f3c7ba23c1fc14bbd59481e0e7f085c68d",
      "to": null,
      "contractAddress": "0x201aba3c28b6ac126472969d700cf0af2d593451"
    },
    {
      "status": "0x1",
      "cumulativeGasUsed": "0x102cfea",
      "logs": [],
      "logsBloom": "0x00000000000000000000000000000000000000000000000000000000000000000000000000000000000000000000000000000000000000000000000000000000000000000000000000000000000000000000000000000000000000000000000000000000000000000000000000000000000000000000000000000000000000000000000000000000000000000000000000000000000000000000000000000000000000000000000000000000000000000000000000000000000000000000000000000000000000000000000000000000000000000000000000000000000000000000000000000000000000000000000000000000000000000000000000000000",
      "type": "0x0",
      "transactionHash": "0x92aa51b300da481900cddf08a3294a05be002ff9d9a6367331bfc96705d7249d",
      "transactionIndex": "0x41",
      "blockHash": "0xdc39d400698c38ffe49e1ad090d03370b72a0eb1b4b2653d30143db4ca365e06",
      "blockNumber": "0x60fbb1",
      "gasUsed": "0x932b",
      "effectiveGasPrice": "0x6dc06fadb",
      "from": "0xa21039f3c7ba23c1fc14bbd59481e0e7f085c68d",
      "to": "0x201aba3c28b6ac126472969d700cf0af2d593451",
      "contractAddress": null
    },
    {
      "status": "0x1",
      "cumulativeGasUsed": "0x1033e5d",
      "logs": [],
      "logsBloom": "0x00000000000000000000000000000000000000000000000000000000000000000000000000000000000000000000000000000000000000000000000000000000000000000000000000000000000000000000000000000000000000000000000000000000000000000000000000000000000000000000000000000000000000000000000000000000000000000000000000000000000000000000000000000000000000000000000000000000000000000000000000000000000000000000000000000000000000000000000000000000000000000000000000000000000000000000000000000000000000000000000000000000000000000000000000000000",
      "type": "0x0",
      "transactionHash": "0xa98fe02cc972a668a397416fd1f59c1550e1d61feadfd62fe41d2870eb79a8de",
      "transactionIndex": "0x42",
      "blockHash": "0xdc39d400698c38ffe49e1ad090d03370b72a0eb1b4b2653d30143db4ca365e06",
      "blockNumber": "0x60fbb1",
      "gasUsed": "0x6e73",
      "effectiveGasPrice": "0x6dc06fadb",
      "from": "0xa21039f3c7ba23c1fc14bbd59481e0e7f085c68d",
      "to": "0x9d29d33d4329640e96cc259e141838eb3eb2f1d9",
      "contractAddress": null
    },
    {
      "status": "0x1",
      "cumulativeGasUsed": "0x103ad31",
      "logs": [],
      "logsBloom": "0x00000000000000000000000000000000000000000000000000000000000000000000000000000000000000000000000000000000000000000000000000000000000000000000000000000000000000000000000000000000000000000000000000000000000000000000000000000000000000000000000000000000000000000000000000000000000000000000000000000000000000000000000000000000000000000000000000000000000000000000000000000000000000000000000000000000000000000000000000000000000000000000000000000000000000000000000000000000000000000000000000000000000000000000000000000000",
      "type": "0x0",
      "transactionHash": "0x9820edad87b785618e980621a6c1ff1dc3668ff94d5fb680c02ad96c8b75da6a",
      "transactionIndex": "0x43",
      "blockHash": "0xdc39d400698c38ffe49e1ad090d03370b72a0eb1b4b2653d30143db4ca365e06",
      "blockNumber": "0x60fbb1",
      "gasUsed": "0x6ed4",
      "effectiveGasPrice": "0x6dc06fadb",
      "from": "0xa21039f3c7ba23c1fc14bbd59481e0e7f085c68d",
      "to": "0x9d29d33d4329640e96cc259e141838eb3eb2f1d9",
      "contractAddress": null
    },
    {
      "status": "0x1",
      "cumulativeGasUsed": "0x104390e",
      "logs": [],
      "logsBloom": "0x00000000000000000000000000000000000000000000000000000000000000000000000000000000000000000000000000000000000000000000000000000000000000000000000000000000000000000000000000000000000000000000000000000000000000000000000000000000000000000000000000000000000000000000000000000000000000000000000000000000000000000000000000000000000000000000000000000000000000000000000000000000000000000000000000000000000000000000000000000000000000000000000000000000000000000000000000000000000000000000000000000000000000000000000000000000",
      "type": "0x0",
      "transactionHash": "0x86c96105aa4f1e196c937c10e8f17dbbb567f9156fa55ae374baeabf40f960c0",
      "transactionIndex": "0x44",
      "blockHash": "0xdc39d400698c38ffe49e1ad090d03370b72a0eb1b4b2653d30143db4ca365e06",
      "blockNumber": "0x60fbb1",
      "gasUsed": "0x8bdd",
      "effectiveGasPrice": "0x6dc06fadb",
      "from": "0xa21039f3c7ba23c1fc14bbd59481e0e7f085c68d",
      "to": "0x9d29d33d4329640e96cc259e141838eb3eb2f1d9",
      "contractAddress": null
    },
    {
      "status": "0x1",
      "cumulativeGasUsed": "0x104a552",
      "logs": [],
      "logsBloom": "0x00000000000000000000000000000000000000000000000000000000000000000000000000000000000000000000000000000000000000000000000000000000000000000000000000000000000000000000000000000000000000000000000000000000000000000000000000000000000000000000000000000000000000000000000000000000000000000000000000000000000000000000000000000000000000000000000000000000000000000000000000000000000000000000000000000000000000000000000000000000000000000000000000000000000000000000000000000000000000000000000000000000000000000000000000000000",
      "type": "0x0",
      "transactionHash": "0x3aecb462a2b596176269f407ed0d09ce58a9c85f4d4a8c575db0520edb61c10d",
      "transactionIndex": "0x45",
      "blockHash": "0xdc39d400698c38ffe49e1ad090d03370b72a0eb1b4b2653d30143db4ca365e06",
      "blockNumber": "0x60fbb1",
      "gasUsed": "0x6c44",
      "effectiveGasPrice": "0x6dc06fadb",
      "from": "0xa21039f3c7ba23c1fc14bbd59481e0e7f085c68d",
      "to": "0x9d29d33d4329640e96cc259e141838eb3eb2f1d9",
      "contractAddress": null
    }
  ],
  "libraries": [],
  "pending": [],
  "returns": {},
  "timestamp": 1721647856,
  "chain": 11155111,
  "commit": "d8d8f58"
}