{
  "transactions": [
    {
      "hash": "0x4ff3136068fc419049ac2ca534b2a5371fbdb6301dc12de8822dadf186a64618",
      "transactionType": "CALL",
      "contractName": null,
      "contractAddress": "0x9d29d33d4329640e96cc259e141838eb3eb2f1d9",
      "function": "flip(bool)",
      "arguments": [
        "false"
      ],
      "transaction": {
        "from": "0xa21039f3c7ba23c1fc14bbd59481e0e7f085c68d",
        "to": "0x9d29d33d4329640e96cc259e141838eb3eb2f1d9",
        "gas": "0xce2d",
        "value": "0x0",
        "input": "0x1d263f670000000000000000000000000000000000000000000000000000000000000000",
        "nonce": "0x13",
        "chainId": "0xaa36a7"
      },
      "additionalContracts": [],
      "isFixedGasLimit": false
    },
    {
      "hash": "0xa6595965bb79a3856ddf19503c465bd5e716c9a876fbab405b83523614d27756",
      "transactionType": "CREATE",
      "contractName": "Proxy",
      "contractAddress": "0xf17c5d1e50845682679be1b74e6893929efd1335",
      "function": null,
      "arguments": [
        "0x9D29D33d4329640e96cC259E141838EB3EB2f1d9"
      ],
      "transaction": {
        "from": "0xa21039f3c7ba23c1fc14bbd59481e0e7f085c68d",
        "gas": "0x25e68",
        "value": "0x0",
        "input": "0x608060405234801561001057600080fd5b506040516101283803806101288339818101604052602081101561003357600080fd5b5051600080546001600160a01b039092166001600160a01b031990921691909117905560c4806100646000396000f3fe6080604052348015600f57600080fd5b506004361060285760003560e01c80639dfbccfe14602d575b600080fd5b60336035565b005b60008054604080516335f9cd5560e11b815290516001600160a01b0390921692636bf39aaa9260048084019382900301818387803b158015607557600080fd5b505af11580156088573d6000803e3d6000fd5b5050505056fea26469706673582212207ff1811f4e660d63eda769435319577a8a39dbc3274c5726fa16ea16d545d78364736f6c634300070000330000000000000000000000009d29d33d4329640e96cc259e141838eb3eb2f1d9",
        "nonce": "0x14",
        "chainId": "0xaa36a7"
      },
      "additionalContracts": [],
      "isFixedGasLimit": false
    },
    {
      "hash": "0x44dcbda4eb69cdbd62415640267bc1562cdac30d8f756886f712090d14c10ca9",
      "transactionType": "CALL",
      "contractName": "Proxy",
      "contractAddress": "0xf17c5d1e50845682679be1b74e6893929efd1335",
      "function": "addpoint()",
      "arguments": [],
      "transaction": {
        "from": "0xa21039f3c7ba23c1fc14bbd59481e0e7f085c68d",
        "to": "0xf17c5d1e50845682679be1b74e6893929efd1335",
        "gas": "0xb05f",
        "value": "0x0",
        "input": "0x9dfbccfe",
        "nonce": "0x15",
        "chainId": "0xaa36a7"
      },
      "additionalContracts": [],
      "isFixedGasLimit": false
    },
    {
      "hash": "0xeccf9c8f216d59528faf7df49b7a8ef9f972624b927ebf39170bd9a02daa4538",
      "transactionType": "CALL",
      "contractName": null,
      "contractAddress": "0x9d29d33d4329640e96cc259e141838eb3eb2f1d9",
      "function": "transfer(address,uint256)",
      "arguments": [
        "0x0000000000000000000000000000000000000000",
        "123"
      ],
      "transaction": {
        "from": "0xa21039f3c7ba23c1fc14bbd59481e0e7f085c68d",
        "to": "0x9d29d33d4329640e96cc259e141838eb3eb2f1d9",
        "gas": "0xc4d0",
        "value": "0x0",
        "input": "0xa9059cbb0000000000000000000000000000000000000000000000000000000000000000000000000000000000000000000000000000000000000000000000000000007b",
        "nonce": "0x16",
        "chainId": "0xaa36a7"
      },
      "additionalContracts": [],
      "isFixedGasLimit": false
    },
    {
      "hash": "0xfaa6e0a074786d56a590086388e9e87fa7bb34a5e5a0d20e131eddb502e8ebfb",
      "transactionType": "CALL",
      "contractName": null,
      "contractAddress": "0x9d29d33d4329640e96cc259e141838eb3eb2f1d9",
      "function": "sendKey(bytes16)",
      "arguments": [
        "0x4cded594c37730434fcf53dd25e29ab500000000000000000000000000000000"
      ],
      "transaction": {
        "from": "0xa21039f3c7ba23c1fc14bbd59481e0e7f085c68d",
        "to": "0x9d29d33d4329640e96cc259e141838eb3eb2f1d9",
        "gas": "0xa187",
        "value": "0x0",
        "input": "0x9d3ad91a4cded594c37730434fcf53dd25e29ab500000000000000000000000000000000",
        "nonce": "0x17",
        "chainId": "0xaa36a7"
      },
      "additionalContracts": [],
      "isFixedGasLimit": false
    },
    {
      "hash": "0x8aff70d0745b277751246bd627098b763f68553c04426b102e931706897142c0",
      "transactionType": "CALL",
      "contractName": null,
      "contractAddress": "0x9d29d33d4329640e96cc259e141838eb3eb2f1d9",
      "function": "sendPassword(bytes32)",
      "arguments": [
        "0xde241fe7f783f2ed343248c0762dade0cf4eea6ed49dfe2f9f1267483c9eade8"
      ],
      "transaction": {
        "from": "0xa21039f3c7ba23c1fc14bbd59481e0e7f085c68d",
        "to": "0x9d29d33d4329640e96cc259e141838eb3eb2f1d9",
        "gas": "0x9914",
        "value": "0x0",
        "input": "0x5c8d2c38de241fe7f783f2ed343248c0762dade0cf4eea6ed49dfe2f9f1267483c9eade8",
        "nonce": "0x18",
        "chainId": "0xaa36a7"
      },
      "additionalContracts": [],
      "isFixedGasLimit": false
    },
    {
      "hash": "0xe1f21fad143a0980bf17d5c3b3b13d4e5bee3f731ff103f1cf8214bd3870e29e",
      "transactionType": "CALL",
      "contractName": null,
      "contractAddress": "0x9d29d33d4329640e96cc259e141838eb3eb2f1d9",
      "function": "contribute()",
      "arguments": [],
      "transaction": {
        "from": "0xa21039f3c7ba23c1fc14bbd59481e0e7f085c68d",
        "to": "0x9d29d33d4329640e96cc259e141838eb3eb2f1d9",
        "gas": "0xbb37",
        "value": "0x3328b944c4000",
        "input": "0xd7bb99ba",
        "nonce": "0x19",
        "chainId": "0xaa36a7"
      },
      "additionalContracts": [],
      "isFixedGasLimit": false
    },
    {
      "hash": "0x203feaa9edc22b54a45a99990d941199207a374952ed6ee839aace72afa6ded5",
      "transactionType": "CALL",
      "contractName": null,
      "contractAddress": "0x9d29d33d4329640e96cc259e141838eb3eb2f1d9",
      "function": null,
      "arguments": null,
      "transaction": {
        "from": "0xa21039f3c7ba23c1fc14bbd59481e0e7f085c68d",
        "to": "0x9d29d33d4329640e96cc259e141838eb3eb2f1d9",
        "gas": "0x958a",
        "value": "0x38d7ea4c68000",
        "input": "0x",
        "nonce": "0x1a",
        "chainId": "0xaa36a7"
      },
      "additionalContracts": [],
      "isFixedGasLimit": false
    }
  ],
  "receipts": [
    {
      "status": "0x1",
      "cumulativeGasUsed": "0xed3916",
      "logs": [],
      "logsBloom": "0x00000000000000000000000000000000000000000000000000000000000000000000000000000000000000000000000000000000000000000000000000000000000000000000000000000000000000000000000000000000000000000000000000000000000000000000000000000000000000000000000000000000000000000000000000000000000000000000000000000000000000000000000000000000000000000000000000000000000000000000000000000000000000000000000000000000000000000000000000000000000000000000000000000000000000000000000000000000000000000000000000000000000000000000000000000000",
      "type": "0x0",
      "transactionHash": "0x4ff3136068fc419049ac2ca534b2a5371fbdb6301dc12de8822dadf186a64618",
      "transactionIndex": "0x88",
      "blockHash": "0xbcead028a4b7b8b21583609c8057fb1da70f95c0565010913c91f51daff243ca",
      "blockNumber": "0x60fb18",
      "gasUsed": "0x8cfa",
      "effectiveGasPrice": "0x76def67f0",
      "from": "0xa21039f3c7ba23c1fc14bbd59481e0e7f085c68d",
      "to": "0x9d29d33d4329640e96cc259e141838eb3eb2f1d9",
      "contractAddress": null
    },
    {
      "status": "0x1",
      "cumulativeGasUsed": "0xef0ba4",
      "logs": [],
      "logsBloom": "0x00000000000000000000000000000000000000000000000000000000000000000000000000000000000000000000000000000000000000000000000000000000000000000000000000000000000000000000000000000000000000000000000000000000000000000000000000000000000000000000000000000000000000000000000000000000000000000000000000000000000000000000000000000000000000000000000000000000000000000000000000000000000000000000000000000000000000000000000000000000000000000000000000000000000000000000000000000000000000000000000000000000000000000000000000000000",
      "type": "0x0",
      "transactionHash": "0xa6595965bb79a3856ddf19503c465bd5e716c9a876fbab405b83523614d27756",
      "transactionIndex": "0x89",
      "blockHash": "0xbcead028a4b7b8b21583609c8057fb1da70f95c0565010913c91f51daff243ca",
      "blockNumber": "0x60fb18",
      "gasUsed": "0x1d28e",
      "effectiveGasPrice": "0x76def67f0",
      "from": "0xa21039f3c7ba23c1fc14bbd59481e0e7f085c68d",
      "to": null,
      "contractAddress": "0xf17c5d1e50845682679be1b74e6893929efd1335"
    },
    {
      "status": "0x1",
      "cumulativeGasUsed": "0xef843d",
      "logs": [],
      "logsBloom": "0x00000000000000000000000000000000000000000000000000000000000000000000000000000000000000000000000000000000000000000000000000000000000000000000000000000000000000000000000000000000000000000000000000000000000000000000000000000000000000000000000000000000000000000000000000000000000000000000000000000000000000000000000000000000000000000000000000000000000000000000000000000000000000000000000000000000000000000000000000000000000000000000000000000000000000000000000000000000000000000000000000000000000000000000000000000000",
      "type": "0x0",
      "transactionHash": "0x44dcbda4eb69cdbd62415640267bc1562cdac30d8f756886f712090d14c10ca9",
      "transactionIndex": "0x8a",
      "blockHash": "0xbcead028a4b7b8b21583609c8057fb1da70f95c0565010913c91f51daff243ca",
      "blockNumber": "0x60fb18",
      "gasUsed": "0x7899",
      "effectiveGasPrice": "0x76def67f0",
      "from": "0xa21039f3c7ba23c1fc14bbd59481e0e7f085c68d",
      "to": "0xf17c5d1e50845682679be1b74e6893929efd1335",
      "contractAddress": null
    },
    {
      "status": "0x1",
      "cumulativeGasUsed": "0xf012bb",
      "logs": [],
      "logsBloom": "0x00000000000000000000000000000000000000000000000000000000000000000000000000000000000000000000000000000000000000000000000000000000000000000000000000000000000000000000000000000000000000000000000000000000000000000000000000000000000000000000000000000000000000000000000000000000000000000000000000000000000000000000000000000000000000000000000000000000000000000000000000000000000000000000000000000000000000000000000000000000000000000000000000000000000000000000000000000000000000000000000000000000000000000000000000000000",
      "type": "0x0",
      "transactionHash": "0xeccf9c8f216d59528faf7df49b7a8ef9f972624b927ebf39170bd9a02daa4538",
      "transactionIndex": "0x8b",
      "blockHash": "0xbcead028a4b7b8b21583609c8057fb1da70f95c0565010913c91f51daff243ca",
      "blockNumber": "0x60fb18",
      "gasUsed": "0x8e7e",
      "effectiveGasPrice": "0x76def67f0",
      "from": "0xa21039f3c7ba23c1fc14bbd59481e0e7f085c68d",
      "to": "0x9d29d33d4329640e96cc259e141838eb3eb2f1d9",
      "contractAddress": null
    },
    {
      "status": "0x1",
      "cumulativeGasUsed": "0xf0812e",
      "logs": [],
      "logsBloom": "0x00000000000000000000000000000000000000000000000000000000000000000000000000000000000000000000000000000000000000000000000000000000000000000000000000000000000000000000000000000000000000000000000000000000000000000000000000000000000000000000000000000000000000000000000000000000000000000000000000000000000000000000000000000000000000000000000000000000000000000000000000000000000000000000000000000000000000000000000000000000000000000000000000000000000000000000000000000000000000000000000000000000000000000000000000000000",
      "type": "0x0",
      "transactionHash": "0xfaa6e0a074786d56a590086388e9e87fa7bb34a5e5a0d20e131eddb502e8ebfb",
      "transactionIndex": "0x8c",
      "blockHash": "0xbcead028a4b7b8b21583609c8057fb1da70f95c0565010913c91f51daff243ca",
      "blockNumber": "0x60fb18",
      "gasUsed": "0x6e73",
      "effectiveGasPrice": "0x76def67f0",
      "from": "0xa21039f3c7ba23c1fc14bbd59481e0e7f085c68d",
      "to": "0x9d29d33d4329640e96cc259e141838eb3eb2f1d9",
      "contractAddress": null
    },
    {
      "status": "0x1",
      "cumulativeGasUsed": "0xf0f002",
      "logs": [],
      "logsBloom": "0x00000000000000000000000000000000000000000000000000000000000000000000000000000000000000000000000000000000000000000000000000000000000000000000000000000000000000000000000000000000000000000000000000000000000000000000000000000000000000000000000000000000000000000000000000000000000000000000000000000000000000000000000000000000000000000000000000000000000000000000000000000000000000000000000000000000000000000000000000000000000000000000000000000000000000000000000000000000000000000000000000000000000000000000000000000000",
      "type": "0x0",
      "transactionHash": "0x8aff70d0745b277751246bd627098b763f68553c04426b102e931706897142c0",
      "transactionIndex": "0x8d",
      "blockHash": "0xbcead028a4b7b8b21583609c8057fb1da70f95c0565010913c91f51daff243ca",
      "blockNumber": "0x60fb18",
      "gasUsed": "0x6ed4",
      "effectiveGasPrice": "0x76def67f0",
      "from": "0xa21039f3c7ba23c1fc14bbd59481e0e7f085c68d",
      "to": "0x9d29d33d4329640e96cc259e141838eb3eb2f1d9",
      "contractAddress": null
    },
    {
      "status": "0x1",
      "cumulativeGasUsed": "0xf17005",
      "logs": [],
      "logsBloom": "0x00000000000000000000000000000000000000000000000000000000000000000000000000000000000000000000000000000000000000000000000000000000000000000000000000000000000000000000000000000000000000000000000000000000000000000000000000000000000000000000000000000000000000000000000000000000000000000000000000000000000000000000000000000000000000000000000000000000000000000000000000000000000000000000000000000000000000000000000000000000000000000000000000000000000000000000000000000000000000000000000000000000000000000000000000000000",
      "type": "0x0",
      "transactionHash": "0xe1f21fad143a0980bf17d5c3b3b13d4e5bee3f731ff103f1cf8214bd3870e29e",
      "transactionIndex": "0x8e",
      "blockHash": "0xbcead028a4b7b8b21583609c8057fb1da70f95c0565010913c91f51daff243ca",
      "blockNumber": "0x60fb18",
      "gasUsed": "0x8003",
      "effectiveGasPrice": "0x76def67f0",
      "from": "0xa21039f3c7ba23c1fc14bbd59481e0e7f085c68d",
      "to": "0x9d29d33d4329640e96cc259e141838eb3eb2f1d9",
      "contractAddress": null
    },
    {
      "status": "0x1",
      "cumulativeGasUsed": "0xf1dc49",
      "logs": [],
      "logsBloom": "0x00000000000000000000000000000000000000000000000000000000000000000000000000000000000000000000000000000000000000000000000000000000000000000000000000000000000000000000000000000000000000000000000000000000000000000000000000000000000000000000000000000000000000000000000000000000000000000000000000000000000000000000000000000000000000000000000000000000000000000000000000000000000000000000000000000000000000000000000000000000000000000000000000000000000000000000000000000000000000000000000000000000000000000000000000000000",
      "type": "0x0",
      "transactionHash": "0x203feaa9edc22b54a45a99990d941199207a374952ed6ee839aace72afa6ded5",
      "transactionIndex": "0x8f",
      "blockHash": "0xbcead028a4b7b8b21583609c8057fb1da70f95c0565010913c91f51daff243ca",
      "blockNumber": "0x60fb18",
      "gasUsed": "0x6c44",
      "effectiveGasPrice": "0x76def67f0",
      "from": "0xa21039f3c7ba23c1fc14bbd59481e0e7f085c68d",
      "to": "0x9d29d33d4329640e96cc259e141838eb3eb2f1d9",
      "contractAddress": null
    }
  ],
  "libraries": [],
  "pending": [],
  "returns": {},
  "timestamp": 1721645450,
  "chain": 11155111,
  "commit": "d8d8f58"
}