{
  "transactions": [
    {
      "hash": "0x904362d98e9aed763f8f0cbc25f3b8f28eef8a373f08252f69e1eff3cc795a0f",
      "transactionType": "CALL",
      "contractName": null,
      "contractAddress": "0x9d29d33d4329640e96cc259e141838eb3eb2f1d9",
      "function": "flip(bool)",
      "arguments": [
        "false"
      ],
      "transaction": {
        "from": "0xa21039f3c7ba23c1fc14bbd59481e0e7f085c68d",
        "to": "0x9d29d33d4329640e96cc259e141838eb3eb2f1d9",
        "gas": "0xce2d",
        "value": "0x0",
        "input": "0x1d263f670000000000000000000000000000000000000000000000000000000000000000",
        "nonce": "0x54",
        "chainId": "0xaa36a7"
      },
      "additionalContracts": [],
      "isFixedGasLimit": false
    },
    {
      "hash": "0x2db388a74fe3bf6a083ec9b75b7222753ab60203e09219706b90d0c585db6f76",
      "transactionType": "CREATE",
      "contractName": "Proxy",
      "contractAddress": "0x3a0df288e2d487f5c69c4a5f2510bd4d1389fe00",
      "function": null,
      "arguments": [
        "0x9D29D33d4329640e96cC259E141838EB3EB2f1d9"
      ],
      "transaction": {
        "from": "0xa21039f3c7ba23c1fc14bbd59481e0e7f085c68d",
        "gas": "0x25e68",
        "value": "0x0",
        "input": "0x608060405234801561001057600080fd5b506040516101283803806101288339818101604052602081101561003357600080fd5b5051600080546001600160a01b039092166001600160a01b031990921691909117905560c4806100646000396000f3fe6080604052348015600f57600080fd5b506004361060285760003560e01c80639dfbccfe14602d575b600080fd5b60336035565b005b60008054604080516335f9cd5560e11b815290516001600160a01b0390921692636bf39aaa9260048084019382900301818387803b158015607557600080fd5b505af11580156088573d6000803e3d6000fd5b5050505056fea26469706673582212207ff1811f4e660d63eda769435319577a8a39dbc3274c5726fa16ea16d545d78364736f6c634300070000330000000000000000000000009d29d33d4329640e96cc259e141838eb3eb2f1d9",
        "nonce": "0x55",
        "chainId": "0xaa36a7"
      },
      "additionalContracts": [],
      "isFixedGasLimit": false
    },
    {
      "hash": "0xab2701b00e145c891cf8f372de0689873df0ff200a3a7bfd51d856804511a76d",
      "transactionType": "CALL",
      "contractName": "Proxy",
      "contractAddress": "0x3a0df288e2d487f5c69c4a5f2510bd4d1389fe00",
      "function": "addpoint()",
      "arguments": [],
      "transaction": {
        "from": "0xa21039f3c7ba23c1fc14bbd59481e0e7f085c68d",
        "to": "0x3a0df288e2d487f5c69c4a5f2510bd4d1389fe00",
        "gas": "0xb05f",
        "value": "0x0",
        "input": "0x9dfbccfe",
        "nonce": "0x56",
        "chainId": "0xaa36a7"
      },
      "additionalContracts": [],
      "isFixedGasLimit": false
    },
    {
      "hash": "0x1ed6e7fafd51f7b9c0d8cf153ab764d7d0e6dcd17d9710a5eb5e8b32617c06b0",
      "transactionType": "CALL",
      "contractName": null,
      "contractAddress": "0x9d29d33d4329640e96cc259e141838eb3eb2f1d9",
      "function": "transfer(address,uint256)",
      "arguments": [
        "0x0000000000000000000000000000000000000000",
        "123"
      ],
      "transaction": {
        "from": "0xa21039f3c7ba23c1fc14bbd59481e0e7f085c68d",
        "to": "0x9d29d33d4329640e96cc259e141838eb3eb2f1d9",
        "gas": "0xc4d0",
        "value": "0x0",
        "input": "0xa9059cbb0000000000000000000000000000000000000000000000000000000000000000000000000000000000000000000000000000000000000000000000000000007b",
        "nonce": "0x57",
        "chainId": "0xaa36a7"
      },
      "additionalContracts": [],
      "isFixedGasLimit": false
    },
    {
      "hash": "0x1046b5e1bf02fe2a45512b73f763ca527194653d758f4d5edb57992749f7f8ed",
      "transactionType": "CREATE",
      "contractName": "ExploitBuilding",
      "contractAddress": "0x29fb763584754a25d2e4513f9230aaad66fadaee",
      "function": null,
      "arguments": [
        "0x9D29D33d4329640e96cC259E141838EB3EB2f1d9"
      ],
      "transaction": {
        "from": "0xa21039f3c7ba23c1fc14bbd59481e0e7f085c68d",
        "gas": "0x3627b",
        "value": "0x0",
        "input": "0x60806040526000805460ff60a01b1916905534801561001d57600080fd5b506040516102223803806102228339818101604052602081101561004057600080fd5b5051600080546001600160a01b039092166001600160a01b03199092169190911790556101b0806100726000396000f3fe608060405234801561001057600080fd5b506004361061004c5760003560e01c806335f738a7146100515780635f9a4bca1461006d57806399cb4fbc1461008a578063f95c9b1b146100ae575b600080fd5b6100596100b8565b604080519115158252519081900360200190f35b6100596004803603602081101561008357600080fd5b50356100c8565b610092610109565b604080516001600160a01b039092168252519081900360200190f35b6100b6610118565b005b600054600160a01b900460ff1681565b60008054600160a01b900460ff166100f357506000805460ff60a01b1916600160a01b178155610104565b506000805460ff60a01b1916905560015b919050565b6000546001600160a01b031681565b6000805460408051633b669c4d60e21b81526001600482015290516001600160a01b039092169263ed9a71349260248084019382900301818387803b15801561016057600080fd5b505af1158015610174573d6000803e3d6000fd5b5050505056fea264697066735822122094161002be9113b574ae909bcb62f8f70907b0483412aadef9494564490bbfd764736f6c634300070000330000000000000000000000009d29d33d4329640e96cc259e141838eb3eb2f1d9",
        "nonce": "0x58",
        "chainId": "0xaa36a7"
      },
      "additionalContracts": [],
      "isFixedGasLimit": false
    },
    {
      "hash": "0xd55de988dd69f42f827029ca93b8d5fc363fe475a6c9f37e92caf70504786504",
      "transactionType": "CALL",
      "contractName": "ExploitBuilding",
      "contractAddress": "0x29fb763584754a25d2e4513f9230aaad66fadaee",
      "function": "exploitGoTo()",
      "arguments": [],
      "transaction": {
        "from": "0xa21039f3c7ba23c1fc14bbd59481e0e7f085c68d",
        "to": "0x29fb763584754a25d2e4513f9230aaad66fadaee",
        "gas": "0xd73b",
        "value": "0x0",
        "input": "0xf95c9b1b",
        "nonce": "0x59",
        "chainId": "0xaa36a7"
      },
      "additionalContracts": [],
      "isFixedGasLimit": false
    },
    {
      "hash": "0xa61c840f73f47d719b9f4c34db1fbb4ca2cbfba72d094400b5629333580c91c0",
      "transactionType": "CALL",
      "contractName": null,
      "contractAddress": "0x9d29d33d4329640e96cc259e141838eb3eb2f1d9",
      "function": "sendKey(bytes16)",
      "arguments": [
        "0x4cded594c37730434fcf53dd25e29ab500000000000000000000000000000000"
      ],
      "transaction": {
        "from": "0xa21039f3c7ba23c1fc14bbd59481e0e7f085c68d",
        "to": "0x9d29d33d4329640e96cc259e141838eb3eb2f1d9",
        "gas": "0xa187",
        "value": "0x0",
        "input": "0x9d3ad91a4cded594c37730434fcf53dd25e29ab500000000000000000000000000000000",
        "nonce": "0x5a",
        "chainId": "0xaa36a7"
      },
      "additionalContracts": [],
      "isFixedGasLimit": false
    },
    {
      "hash": "0xc0df8b843fef46d1f21969a361e13f92e76ae0c7487d943a3ca1c948b708d511",
      "transactionType": "CALL",
      "contractName": null,
      "contractAddress": "0x9d29d33d4329640e96cc259e141838eb3eb2f1d9",
      "function": "sendPassword(bytes32)",
      "arguments": [
        "0xde241fe7f783f2ed343248c0762dade0cf4eea6ed49dfe2f9f1267483c9eade8"
      ],
      "transaction": {
        "from": "0xa21039f3c7ba23c1fc14bbd59481e0e7f085c68d",
        "to": "0x9d29d33d4329640e96cc259e141838eb3eb2f1d9",
        "gas": "0x9914",
        "value": "0x0",
        "input": "0x5c8d2c38de241fe7f783f2ed343248c0762dade0cf4eea6ed49dfe2f9f1267483c9eade8",
        "nonce": "0x5b",
        "chainId": "0xaa36a7"
      },
      "additionalContracts": [],
      "isFixedGasLimit": false
    },
    {
      "hash": "0x2e28ed1a8ac2dfefd603658208966c5487127317fa5bc9101bbf936eebcece57",
      "transactionType": "CALL",
      "contractName": null,
      "contractAddress": "0x9d29d33d4329640e96cc259e141838eb3eb2f1d9",
      "function": "contribute()",
      "arguments": [],
      "transaction": {
        "from": "0xa21039f3c7ba23c1fc14bbd59481e0e7f085c68d",
        "to": "0x9d29d33d4329640e96cc259e141838eb3eb2f1d9",
        "gas": "0xc12e",
        "value": "0x3328b944c4000",
        "input": "0xd7bb99ba",
        "nonce": "0x5c",
        "chainId": "0xaa36a7"
      },
      "additionalContracts": [],
      "isFixedGasLimit": false
    },
    {
      "hash": "0x4cc5b44a9f3e88d86ea14e6cf8df58417d137653df7c5f1822f4e34ebcf08fe5",
      "transactionType": "CALL",
      "contractName": null,
      "contractAddress": "0x9d29d33d4329640e96cc259e141838eb3eb2f1d9",
      "function": null,
      "arguments": null,
      "transaction": {
        "from": "0xa21039f3c7ba23c1fc14bbd59481e0e7f085c68d",
        "to": "0x9d29d33d4329640e96cc259e141838eb3eb2f1d9",
        "gas": "0x958a",
        "value": "0x38d7ea4c68000",
        "input": "0x",
        "nonce": "0x5d",
        "chainId": "0xaa36a7"
      },
      "additionalContracts": [],
      "isFixedGasLimit": false
    }
  ],
  "receipts": [
    {
      "status": "0x1",
      "cumulativeGasUsed": "0xebd975",
      "logs": [],
      "logsBloom": "0x00000000000000000000000000000000000000000000000000000000000000000000000000000000000000000000000000000000000000000000000000000000000000000000000000000000000000000000000000000000000000000000000000000000000000000000000000000000000000000000000000000000000000000000000000000000000000000000000000000000000000000000000000000000000000000000000000000000000000000000000000000000000000000000000000000000000000000000000000000000000000000000000000000000000000000000000000000000000000000000000000000000000000000000000000000000",
      "type": "0x0",
      "transactionHash": "0x904362d98e9aed763f8f0cbc25f3b8f28eef8a373f08252f69e1eff3cc795a0f",
      "transactionIndex": "0x60",
      "blockHash": "0xe8f83f7608e0563e5515be9c0438e7d2b7b4641f8cd6590ddcd5c7e7d9286333",
      "blockNumber": "0x60fb9b",
      "gasUsed": "0x8cfa",
      "effectiveGasPrice": "0x64029fec2",
      "from": "0xa21039f3c7ba23c1fc14bbd59481e0e7f085c68d",
      "to": "0x9d29d33d4329640e96cc259e141838eb3eb2f1d9",
      "contractAddress": null
    },
    {
      "status": "0x1",
      "cumulativeGasUsed": "0xedac03",
      "logs": [],
      "logsBloom": "0x00000000000000000000000000000000000000000000000000000000000000000000000000000000000000000000000000000000000000000000000000000000000000000000000000000000000000000000000000000000000000000000000000000000000000000000000000000000000000000000000000000000000000000000000000000000000000000000000000000000000000000000000000000000000000000000000000000000000000000000000000000000000000000000000000000000000000000000000000000000000000000000000000000000000000000000000000000000000000000000000000000000000000000000000000000000",
      "type": "0x0",
      "transactionHash": "0x2db388a74fe3bf6a083ec9b75b7222753ab60203e09219706b90d0c585db6f76",
      "transactionIndex": "0x61",
      "blockHash": "0xe8f83f7608e0563e5515be9c0438e7d2b7b4641f8cd6590ddcd5c7e7d9286333",
      "blockNumber": "0x60fb9b",
      "gasUsed": "0x1d28e",
      "effectiveGasPrice": "0x64029fec2",
      "from": "0xa21039f3c7ba23c1fc14bbd59481e0e7f085c68d",
      "to": null,
      "contractAddress": "0x3a0df288e2d487f5c69c4a5f2510bd4d1389fe00"
    },
    {
      "status": "0x1",
      "cumulativeGasUsed": "0xee249c",
      "logs": [],
      "logsBloom": "0x00000000000000000000000000000000000000000000000000000000000000000000000000000000000000000000000000000000000000000000000000000000000000000000000000000000000000000000000000000000000000000000000000000000000000000000000000000000000000000000000000000000000000000000000000000000000000000000000000000000000000000000000000000000000000000000000000000000000000000000000000000000000000000000000000000000000000000000000000000000000000000000000000000000000000000000000000000000000000000000000000000000000000000000000000000000",
      "type": "0x0",
      "transactionHash": "0xab2701b00e145c891cf8f372de0689873df0ff200a3a7bfd51d856804511a76d",
      "transactionIndex": "0x62",
      "blockHash": "0xe8f83f7608e0563e5515be9c0438e7d2b7b4641f8cd6590ddcd5c7e7d9286333",
      "blockNumber": "0x60fb9b",
      "gasUsed": "0x7899",
      "effectiveGasPrice": "0x64029fec2",
      "from": "0xa21039f3c7ba23c1fc14bbd59481e0e7f085c68d",
      "to": "0x3a0df288e2d487f5c69c4a5f2510bd4d1389fe00",
      "contractAddress": null
    },
    {
      "status": "0x1",
      "cumulativeGasUsed": "0xeeb31a",
      "logs": [],
      "logsBloom": "0x00000000000000000000000000000000000000000000000000000000000000000000000000000000000000000000000000000000000000000000000000000000000000000000000000000000000000000000000000000000000000000000000000000000000000000000000000000000000000000000000000000000000000000000000000000000000000000000000000000000000000000000000000000000000000000000000000000000000000000000000000000000000000000000000000000000000000000000000000000000000000000000000000000000000000000000000000000000000000000000000000000000000000000000000000000000",
      "type": "0x0",
      "transactionHash": "0x1ed6e7fafd51f7b9c0d8cf153ab764d7d0e6dcd17d9710a5eb5e8b32617c06b0",
      "transactionIndex": "0x63",
      "blockHash": "0xe8f83f7608e0563e5515be9c0438e7d2b7b4641f8cd6590ddcd5c7e7d9286333",
      "blockNumber": "0x60fb9b",
      "gasUsed": "0x8e7e",
      "effectiveGasPrice": "0x64029fec2",
      "from": "0xa21039f3c7ba23c1fc14bbd59481e0e7f085c68d",
      "to": "0x9d29d33d4329640e96cc259e141838eb3eb2f1d9",
      "contractAddress": null
    },
    {
      "status": "0x1",
      "cumulativeGasUsed": "0xf14dc6",
      "logs": [],
      "logsBloom": "0x00000000000000000000000000000000000000000000000000000000000000000000000000000000000000000000000000000000000000000000000000000000000000000000000000000000000000000000000000000000000000000000000000000000000000000000000000000000000000000000000000000000000000000000000000000000000000000000000000000000000000000000000000000000000000000000000000000000000000000000000000000000000000000000000000000000000000000000000000000000000000000000000000000000000000000000000000000000000000000000000000000000000000000000000000000000",
      "type": "0x0",
      "transactionHash": "0x1046b5e1bf02fe2a45512b73f763ca527194653d758f4d5edb57992749f7f8ed",
      "transactionIndex": "0x64",
      "blockHash": "0xe8f83f7608e0563e5515be9c0438e7d2b7b4641f8cd6590ddcd5c7e7d9286333",
      "blockNumber": "0x60fb9b",
      "gasUsed": "0x29aac",
      "effectiveGasPrice": "0x64029fec2",
      "from": "0xa21039f3c7ba23c1fc14bbd59481e0e7f085c68d",
      "to": null,
      "contractAddress": "0x29fb763584754a25d2e4513f9230aaad66fadaee"
    },
    {
      "status": "0x1",
      "cumulativeGasUsed": "0xf1e0f1",
      "logs": [],
      "logsBloom": "0x00000000000000000000000000000000000000000000000000000000000000000000000000000000000000000000000000000000000000000000000000000000000000000000000000000000000000000000000000000000000000000000000000000000000000000000000000000000000000000000000000000000000000000000000000000000000000000000000000000000000000000000000000000000000000000000000000000000000000000000000000000000000000000000000000000000000000000000000000000000000000000000000000000000000000000000000000000000000000000000000000000000000000000000000000000000",
      "type": "0x0",
      "transactionHash": "0xd55de988dd69f42f827029ca93b8d5fc363fe475a6c9f37e92caf70504786504",
      "transactionIndex": "0x65",
      "blockHash": "0xe8f83f7608e0563e5515be9c0438e7d2b7b4641f8cd6590ddcd5c7e7d9286333",
      "blockNumber": "0x60fb9b",
      "gasUsed": "0x932b",
      "effectiveGasPrice": "0x64029fec2",
      "from": "0xa21039f3c7ba23c1fc14bbd59481e0e7f085c68d",
      "to": "0x29fb763584754a25d2e4513f9230aaad66fadaee",
      "contractAddress": null
    },
    {
      "status": "0x1",
      "cumulativeGasUsed": "0xf24f64",
      "logs": [],
      "logsBloom": "0x00000000000000000000000000000000000000000000000000000000000000000000000000000000000000000000000000000000000000000000000000000000000000000000000000000000000000000000000000000000000000000000000000000000000000000000000000000000000000000000000000000000000000000000000000000000000000000000000000000000000000000000000000000000000000000000000000000000000000000000000000000000000000000000000000000000000000000000000000000000000000000000000000000000000000000000000000000000000000000000000000000000000000000000000000000000",
      "type": "0x0",
      "transactionHash": "0xa61c840f73f47d719b9f4c34db1fbb4ca2cbfba72d094400b5629333580c91c0",
      "transactionIndex": "0x66",
      "blockHash": "0xe8f83f7608e0563e5515be9c0438e7d2b7b4641f8cd6590ddcd5c7e7d9286333",
      "blockNumber": "0x60fb9b",
      "gasUsed": "0x6e73",
      "effectiveGasPrice": "0x64029fec2",
      "from": "0xa21039f3c7ba23c1fc14bbd59481e0e7f085c68d",
      "to": "0x9d29d33d4329640e96cc259e141838eb3eb2f1d9",
      "contractAddress": null
    },
    {
      "status": "0x1",
      "cumulativeGasUsed": "0xf2be38",
      "logs": [],
      "logsBloom": "0x00000000000000000000000000000000000000000000000000000000000000000000000000000000000000000000000000000000000000000000000000000000000000000000000000000000000000000000000000000000000000000000000000000000000000000000000000000000000000000000000000000000000000000000000000000000000000000000000000000000000000000000000000000000000000000000000000000000000000000000000000000000000000000000000000000000000000000000000000000000000000000000000000000000000000000000000000000000000000000000000000000000000000000000000000000000",
      "type": "0x0",
      "transactionHash": "0xc0df8b843fef46d1f21969a361e13f92e76ae0c7487d943a3ca1c948b708d511",
      "transactionIndex": "0x67",
      "blockHash": "0xe8f83f7608e0563e5515be9c0438e7d2b7b4641f8cd6590ddcd5c7e7d9286333",
      "blockNumber": "0x60fb9b",
      "gasUsed": "0x6ed4",
      "effectiveGasPrice": "0x64029fec2",
      "from": "0xa21039f3c7ba23c1fc14bbd59481e0e7f085c68d",
      "to": "0x9d29d33d4329640e96cc259e141838eb3eb2f1d9",
      "contractAddress": null
    },
    {
      "status": "0x1",
      "cumulativeGasUsed": "0xf34a15",
      "logs": [],
      "logsBloom": "0x00000000000000000000000000000000000000000000000000000000000000000000000000000000000000000000000000000000000000000000000000000000000000000000000000000000000000000000000000000000000000000000000000000000000000000000000000000000000000000000000000000000000000000000000000000000000000000000000000000000000000000000000000000000000000000000000000000000000000000000000000000000000000000000000000000000000000000000000000000000000000000000000000000000000000000000000000000000000000000000000000000000000000000000000000000000",
      "type": "0x0",
      "transactionHash": "0x2e28ed1a8ac2dfefd603658208966c5487127317fa5bc9101bbf936eebcece57",
      "transactionIndex": "0x68",
      "blockHash": "0xe8f83f7608e0563e5515be9c0438e7d2b7b4641f8cd6590ddcd5c7e7d9286333",
      "blockNumber": "0x60fb9b",
      "gasUsed": "0x8bdd",
      "effectiveGasPrice": "0x64029fec2",
      "from": "0xa21039f3c7ba23c1fc14bbd59481e0e7f085c68d",
      "to": "0x9d29d33d4329640e96cc259e141838eb3eb2f1d9",
      "contractAddress": null
    },
    {
      "status": "0x1",
      "cumulativeGasUsed": "0xf3b659",
      "logs": [],
      "logsBloom": "0x00000000000000000000000000000000000000000000000000000000000000000000000000000000000000000000000000000000000000000000000000000000000000000000000000000000000000000000000000000000000000000000000000000000000000000000000000000000000000000000000000000000000000000000000000000000000000000000000000000000000000000000000000000000000000000000000000000000000000000000000000000000000000000000000000000000000000000000000000000000000000000000000000000000000000000000000000000000000000000000000000000000000000000000000000000000",
      "type": "0x0",
      "transactionHash": "0x4cc5b44a9f3e88d86ea14e6cf8df58417d137653df7c5f1822f4e34ebcf08fe5",
      "transactionIndex": "0x69",
      "blockHash": "0xe8f83f7608e0563e5515be9c0438e7d2b7b4641f8cd6590ddcd5c7e7d9286333",
      "blockNumber": "0x60fb9b",
      "gasUsed": "0x6c44",
      "effectiveGasPrice": "0x64029fec2",
      "from": "0xa21039f3c7ba23c1fc14bbd59481e0e7f085c68d",
      "to": "0x9d29d33d4329640e96cc259e141838eb3eb2f1d9",
      "contractAddress": null
    }
  ],
  "libraries": [],
  "pending": [],
  "returns": {},
  "timestamp": 1721647504,
  "chain": 11155111,
  "commit": "d8d8f58"
}