{
  "transactions": [
    {
      "hash": "0xdb8bad6792aec176b39d1d6b8ce4b70f8b5eb290f51b4ccc45c2e572bad28f5f",
      "transactionType": "CALL",
      "contractName": null,
      "contractAddress": "0x9d29d33d4329640e96cc259e141838eb3eb2f1d9",
      "function": "flip(bool)",
      "arguments": [
        "false"
      ],
      "transaction": {
        "from": "0xa21039f3c7ba23c1fc14bbd59481e0e7f085c68d",
        "to": "0x9d29d33d4329640e96cc259e141838eb3eb2f1d9",
        "gas": "0x16c68",
        "value": "0x0",
        "input": "0x1d263f670000000000000000000000000000000000000000000000000000000000000000",
        "nonce": "0x47",
        "chainId": "0xaa36a7"
      },
      "additionalContracts": [],
      "isFixedGasLimit": false
    },
    {
      "hash": "0xd2104678f4277eeaf901d62e4c280d77ecd85d54362ed30d30c1c9790ee01a07",
      "transactionType": "CREATE",
      "contractName": "Proxy",
      "contractAddress": "0xe1e1f235c39a34b6da7a648287c07552892845c9",
      "function": null,
      "arguments": [
        "0x9D29D33d4329640e96cC259E141838EB3EB2f1d9"
      ],
      "transaction": {
        "from": "0xa21039f3c7ba23c1fc14bbd59481e0e7f085c68d",
        "gas": "0x25e68",
        "value": "0x0",
        "input": "0x608060405234801561001057600080fd5b506040516101283803806101288339818101604052602081101561003357600080fd5b5051600080546001600160a01b039092166001600160a01b031990921691909117905560c4806100646000396000f3fe6080604052348015600f57600080fd5b506004361060285760003560e01c80639dfbccfe14602d575b600080fd5b60336035565b005b60008054604080516335f9cd5560e11b815290516001600160a01b0390921692636bf39aaa9260048084019382900301818387803b158015607557600080fd5b505af11580156088573d6000803e3d6000fd5b5050505056fea26469706673582212207ff1811f4e660d63eda769435319577a8a39dbc3274c5726fa16ea16d545d78364736f6c634300070000330000000000000000000000009d29d33d4329640e96cc259e141838eb3eb2f1d9",
        "nonce": "0x48",
        "chainId": "0xaa36a7"
      },
      "additionalContracts": [],
      "isFixedGasLimit": false
    },
    {
      "hash": "0x639c0bf1fd2058c538f67b0510f57079677ee98cc8ffcafe49907c36e2f8ed86",
      "transactionType": "CALL",
      "contractName": "Proxy",
      "contractAddress": "0xe1e1f235c39a34b6da7a648287c07552892845c9",
      "function": "addpoint()",
      "arguments": [],
      "transaction": {
        "from": "0xa21039f3c7ba23c1fc14bbd59481e0e7f085c68d",
        "to": "0xe1e1f235c39a34b6da7a648287c07552892845c9",
        "gas": "0xb05f",
        "value": "0x0",
        "input": "0x9dfbccfe",
        "nonce": "0x49",
        "chainId": "0xaa36a7"
      },
      "additionalContracts": [],
      "isFixedGasLimit": false
    },
    {
      "hash": "0x95db6898a5ff443bd2c276aa1f2172b287e45eecbdbdc9e743e3ec4285729254",
      "transactionType": "CALL",
      "contractName": null,
      "contractAddress": "0x9d29d33d4329640e96cc259e141838eb3eb2f1d9",
      "function": "transfer(address,uint256)",
      "arguments": [
        "0x0000000000000000000000000000000000000000",
        "123"
      ],
      "transaction": {
        "from": "0xa21039f3c7ba23c1fc14bbd59481e0e7f085c68d",
        "to": "0x9d29d33d4329640e96cc259e141838eb3eb2f1d9",
        "gas": "0xc4d0",
        "value": "0x0",
        "input": "0xa9059cbb0000000000000000000000000000000000000000000000000000000000000000000000000000000000000000000000000000000000000000000000000000007b",
        "nonce": "0x4a",
        "chainId": "0xaa36a7"
      },
      "additionalContracts": [],
      "isFixedGasLimit": false
    },
    {
      "hash": "0x4d3efc0c89d0213e37745340e2a110661df768d48da95b896a0eb1989f74b102",
      "transactionType": "CREATE",
      "contractName": "ExploitBuilding",
      "contractAddress": "0x3cc4b8dae9f3fe1e623a36f6e9e3405983446546",
      "function": null,
      "arguments": [
        "0x9D29D33d4329640e96cC259E141838EB3EB2f1d9"
      ],
      "transaction": {
        "from": "0xa21039f3c7ba23c1fc14bbd59481e0e7f085c68d",
        "gas": "0x3627b",
        "value": "0x0",
        "input": "0x60806040526000805460ff60a01b1916905534801561001d57600080fd5b506040516102223803806102228339818101604052602081101561004057600080fd5b5051600080546001600160a01b039092166001600160a01b03199092169190911790556101b0806100726000396000f3fe608060405234801561001057600080fd5b506004361061004c5760003560e01c806335f738a7146100515780635f9a4bca1461006d57806399cb4fbc1461008a578063f95c9b1b146100ae575b600080fd5b6100596100b8565b604080519115158252519081900360200190f35b6100596004803603602081101561008357600080fd5b50356100c8565b610092610109565b604080516001600160a01b039092168252519081900360200190f35b6100b6610118565b005b600054600160a01b900460ff1681565b60008054600160a01b900460ff166100f357506000805460ff60a01b1916600160a01b178155610104565b506000805460ff60a01b1916905560015b919050565b6000546001600160a01b031681565b6000805460408051633b669c4d60e21b81526001600482015290516001600160a01b039092169263ed9a71349260248084019382900301818387803b15801561016057600080fd5b505af1158015610174573d6000803e3d6000fd5b5050505056fea264697066735822122094161002be9113b574ae909bcb62f8f70907b0483412aadef9494564490bbfd764736f6c634300070000330000000000000000000000009d29d33d4329640e96cc259e141838eb3eb2f1d9",
        "nonce": "0x4b",
        "chainId": "0xaa36a7"
      },
      "additionalContracts": [],
      "isFixedGasLimit": false
    },
    {
      "hash": "0x1ae0e746bdb06cf7815c5b57b26da6d348bfae097887cd8a0328b9292aac2e46",
      "transactionType": "CALL",
      "contractName": "ExploitBuilding",
      "contractAddress": "0x3cc4b8dae9f3fe1e623a36f6e9e3405983446546",
      "function": "exploitGoTo()",
      "arguments": [],
      "transaction": {
        "from": "0xa21039f3c7ba23c1fc14bbd59481e0e7f085c68d",
        "to": "0x3cc4b8dae9f3fe1e623a36f6e9e3405983446546",
        "gas": "0xd73b",
        "value": "0x0",
        "input": "0xf95c9b1b",
        "nonce": "0x4c",
        "chainId": "0xaa36a7"
      },
      "additionalContracts": [],
      "isFixedGasLimit": false
    },
    {
      "hash": "0x2fe2c4b1b161fcb627801635566f799c7d7ade07bef5d0471b872f68caf8bb42",
      "transactionType": "CALL",
      "contractName": null,
      "contractAddress": "0x9d29d33d4329640e96cc259e141838eb3eb2f1d9",
      "function": "sendKey(bytes16)",
      "arguments": [
        "0x4cded594c37730434fcf53dd25e29ab500000000000000000000000000000000"
      ],
      "transaction": {
        "from": "0xa21039f3c7ba23c1fc14bbd59481e0e7f085c68d",
        "to": "0x9d29d33d4329640e96cc259e141838eb3eb2f1d9",
        "gas": "0xa187",
        "value": "0x0",
        "input": "0x9d3ad91a4cded594c37730434fcf53dd25e29ab500000000000000000000000000000000",
        "nonce": "0x4d",
        "chainId": "0xaa36a7"
      },
      "additionalContracts": [],
      "isFixedGasLimit": false
    },
    {
      "hash": "0x46f9475534ee944fa1fdfdba443fe2dd0533b0f19c98e951b31fb686f5df2696",
      "transactionType": "CALL",
      "contractName": null,
      "contractAddress": "0x9d29d33d4329640e96cc259e141838eb3eb2f1d9",
      "function": "sendPassword(bytes32)",
      "arguments": [
        "0xde241fe7f783f2ed343248c0762dade0cf4eea6ed49dfe2f9f1267483c9eade8"
      ],
      "transaction": {
        "from": "0xa21039f3c7ba23c1fc14bbd59481e0e7f085c68d",
        "to": "0x9d29d33d4329640e96cc259e141838eb3eb2f1d9",
        "gas": "0x9914",
        "value": "0x0",
        "input": "0x5c8d2c38de241fe7f783f2ed343248c0762dade0cf4eea6ed49dfe2f9f1267483c9eade8",
        "nonce": "0x4e",
        "chainId": "0xaa36a7"
      },
      "additionalContracts": [],
      "isFixedGasLimit": false
    },
    {
      "hash": "0x61aa0d9237ec1dc3457ddf4dfe5203fc8bbffc6276378de3de48d2bac36f6831",
      "transactionType": "CALL",
      "contractName": null,
      "contractAddress": "0x9d29d33d4329640e96cc259e141838eb3eb2f1d9",
      "function": "contribute()",
      "arguments": [],
      "transaction": {
        "from": "0xa21039f3c7ba23c1fc14bbd59481e0e7f085c68d",
        "to": "0x9d29d33d4329640e96cc259e141838eb3eb2f1d9",
        "gas": "0xbb37",
        "value": "0x3328b944c4000",
        "input": "0xd7bb99ba",
        "nonce": "0x4f",
        "chainId": "0xaa36a7"
      },
      "additionalContracts": [],
      "isFixedGasLimit": false
    },
    {
      "hash": "0xb7c36fe33cb7159c058068953983e8a30ff9f3477292e6a9a97046479017a110",
      "transactionType": "CALL",
      "contractName": null,
      "contractAddress": "0x9d29d33d4329640e96cc259e141838eb3eb2f1d9",
      "function": null,
      "arguments": null,
      "transaction": {
        "from": "0xa21039f3c7ba23c1fc14bbd59481e0e7f085c68d",
        "to": "0x9d29d33d4329640e96cc259e141838eb3eb2f1d9",
        "gas": "0x958a",
        "value": "0x38d7ea4c68000",
        "input": "0x",
        "nonce": "0x50",
        "chainId": "0xaa36a7"
      },
      "additionalContracts": [],
      "isFixedGasLimit": false
    }
  ],
  "receipts": [
    {
      "status": "0x1",
      "cumulativeGasUsed": "0x677779",
      "logs": [],
      "logsBloom": "0x00000000000000000000000000000000000000000000000000000000000000000000000000000000000000000000000000000000000000000000000000000000000000000000000000000000000000000000000000000000000000000000000000000000000000000000000000000000000000000000000000000000000000000000000000000000000000000000000000000000000000000000000000000000000000000000000000000000000000000000000000000000000000000000000000000000000000000000000000000000000000000000000000000000000000000000000000000000000000000000000000000000000000000000000000000000",
      "type": "0x0",
      "transactionHash": "0xd2104678f4277eeaf901d62e4c280d77ecd85d54362ed30d30c1c9790ee01a07",
      "transactionIndex": "0x39",
      "blockHash": "0x5a45e412fb3504be5865b92b7d20e832940586205cc30bc328acf785fa05b5d6",
      "blockNumber": "0x60fb68",
      "gasUsed": "0x1d28e",
      "effectiveGasPrice": "0x5e7e6f0dd",
      "from": "0xa21039f3c7ba23c1fc14bbd59481e0e7f085c68d",
      "to": null,
      "contractAddress": "0xe1e1f235c39a34b6da7a648287c07552892845c9"
    },
    {
      "status": "0x1",
      "cumulativeGasUsed": "0x67f012",
      "logs": [],
      "logsBloom": "0x00000000000000000000000000000000000000000000000000000000000000000000000000000000000000000000000000000000000000000000000000000000000000000000000000000000000000000000000000000000000000000000000000000000000000000000000000000000000000000000000000000000000000000000000000000000000000000000000000000000000000000000000000000000000000000000000000000000000000000000000000000000000000000000000000000000000000000000000000000000000000000000000000000000000000000000000000000000000000000000000000000000000000000000000000000000",
      "type": "0x0",
      "transactionHash": "0x639c0bf1fd2058c538f67b0510f57079677ee98cc8ffcafe49907c36e2f8ed86",
      "transactionIndex": "0x3a",
      "blockHash": "0x5a45e412fb3504be5865b92b7d20e832940586205cc30bc328acf785fa05b5d6",
      "blockNumber": "0x60fb68",
      "gasUsed": "0x7899",
      "effectiveGasPrice": "0x5e7e6f0dd",
      "from": "0xa21039f3c7ba23c1fc14bbd59481e0e7f085c68d",
      "to": "0xe1e1f235c39a34b6da7a648287c07552892845c9",
      "contractAddress": null
    },
    {
      "status": "0x1",
      "cumulativeGasUsed": "0x687e90",
      "logs": [],
      "logsBloom": "0x00000000000000000000000000000000000000000000000000000000000000000000000000000000000000000000000000000000000000000000000000000000000000000000000000000000000000000000000000000000000000000000000000000000000000000000000000000000000000000000000000000000000000000000000000000000000000000000000000000000000000000000000000000000000000000000000000000000000000000000000000000000000000000000000000000000000000000000000000000000000000000000000000000000000000000000000000000000000000000000000000000000000000000000000000000000",
      "type": "0x0",
      "transactionHash": "0x95db6898a5ff443bd2c276aa1f2172b287e45eecbdbdc9e743e3ec4285729254",
      "transactionIndex": "0x3b",
      "blockHash": "0x5a45e412fb3504be5865b92b7d20e832940586205cc30bc328acf785fa05b5d6",
      "blockNumber": "0x60fb68",
      "gasUsed": "0x8e7e",
      "effectiveGasPrice": "0x5e7e6f0dd",
      "from": "0xa21039f3c7ba23c1fc14bbd59481e0e7f085c68d",
      "to": "0x9d29d33d4329640e96cc259e141838eb3eb2f1d9",
      "contractAddress": null
    },
    {
      "status": "0x1",
      "cumulativeGasUsed": "0x27adb1",
      "logs": [],
      "logsBloom": "0x00000000000000000000000000000000000000000000000000000000000000000000000000000000000000000000000000000000000000000000000000000000000000000000000000000000000000000000000000000000000000000000000000000000000000000000000000000000000000000000000000000000000000000000000000000000000000000000000000000000000000000000000000000000000000000000000000000000000000000000000000000000000000000000000000000000000000000000000000000000000000000000000000000000000000000000000000000000000000000000000000000000000000000000000000000000",
      "type": "0x0",
      "transactionHash": "0x4d3efc0c89d0213e37745340e2a110661df768d48da95b896a0eb1989f74b102",
      "transactionIndex": "0x1e",
      "blockHash": "0xc444b28f687939c71fd8913e54fff413af44c0611f106fccedd89de933cd2453",
      "blockNumber": "0x60fb69",
      "gasUsed": "0x29aac",
      "effectiveGasPrice": "0x5e7e6f0dd",
      "from": "0xa21039f3c7ba23c1fc14bbd59481e0e7f085c68d",
      "to": null,
      "contractAddress": "0x3cc4b8dae9f3fe1e623a36f6e9e3405983446546"
    },
    {
      "status": "0x1",
      "cumulativeGasUsed": "0x2840dc",
      "logs": [],
      "logsBloom": "0x00000000000000000000000000000000000000000000000000000000000000000000000000000000000000000000000000000000000000000000000000000000000000000000000000000000000000000000000000000000000000000000000000000000000000000000000000000000000000000000000000000000000000000000000000000000000000000000000000000000000000000000000000000000000000000000000000000000000000000000000000000000000000000000000000000000000000000000000000000000000000000000000000000000000000000000000000000000000000000000000000000000000000000000000000000000",
      "type": "0x0",
      "transactionHash": "0x1ae0e746bdb06cf7815c5b57b26da6d348bfae097887cd8a0328b9292aac2e46",
      "transactionIndex": "0x1f",
      "blockHash": "0xc444b28f687939c71fd8913e54fff413af44c0611f106fccedd89de933cd2453",
      "blockNumber": "0x60fb69",
      "gasUsed": "0x932b",
      "effectiveGasPrice": "0x5e7e6f0dd",
      "from": "0xa21039f3c7ba23c1fc14bbd59481e0e7f085c68d",
      "to": "0x3cc4b8dae9f3fe1e623a36f6e9e3405983446546",
      "contractAddress": null
    },
    {
      "status": "0x1",
      "cumulativeGasUsed": "0x28af4f",
      "logs": [],
      "logsBloom": "0x00000000000000000000000000000000000000000000000000000000000000000000000000000000000000000000000000000000000000000000000000000000000000000000000000000000000000000000000000000000000000000000000000000000000000000000000000000000000000000000000000000000000000000000000000000000000000000000000000000000000000000000000000000000000000000000000000000000000000000000000000000000000000000000000000000000000000000000000000000000000000000000000000000000000000000000000000000000000000000000000000000000000000000000000000000000",
      "type": "0x0",
      "transactionHash": "0x2fe2c4b1b161fcb627801635566f799c7d7ade07bef5d0471b872f68caf8bb42",
      "transactionIndex": "0x20",
      "blockHash": "0xc444b28f687939c71fd8913e54fff413af44c0611f106fccedd89de933cd2453",
      "blockNumber": "0x60fb69",
      "gasUsed": "0x6e73",
      "effectiveGasPrice": "0x5e7e6f0dd",
      "from": "0xa21039f3c7ba23c1fc14bbd59481e0e7f085c68d",
      "to": "0x9d29d33d4329640e96cc259e141838eb3eb2f1d9",
      "contractAddress": null
    },
    {
      "status": "0x1",
      "cumulativeGasUsed": "0x291e23",
      "logs": [],
      "logsBloom": "0x00000000000000000000000000000000000000000000000000000000000000000000000000000000000000000000000000000000000000000000000000000000000000000000000000000000000000000000000000000000000000000000000000000000000000000000000000000000000000000000000000000000000000000000000000000000000000000000000000000000000000000000000000000000000000000000000000000000000000000000000000000000000000000000000000000000000000000000000000000000000000000000000000000000000000000000000000000000000000000000000000000000000000000000000000000000",
      "type": "0x0",
      "transactionHash": "0x46f9475534ee944fa1fdfdba443fe2dd0533b0f19c98e951b31fb686f5df2696",
      "transactionIndex": "0x21",
      "blockHash": "0xc444b28f687939c71fd8913e54fff413af44c0611f106fccedd89de933cd2453",
      "blockNumber": "0x60fb69",
      "gasUsed": "0x6ed4",
      "effectiveGasPrice": "0x5e7e6f0dd",
      "from": "0xa21039f3c7ba23c1fc14bbd59481e0e7f085c68d",
      "to": "0x9d29d33d4329640e96cc259e141838eb3eb2f1d9",
      "contractAddress": null
    },
    {
      "status": "0x1",
      "cumulativeGasUsed": "0x299e26",
      "logs": [],
      "logsBloom": "0x00000000000000000000000000000000000000000000000000000000000000000000000000000000000000000000000000000000000000000000000000000000000000000000000000000000000000000000000000000000000000000000000000000000000000000000000000000000000000000000000000000000000000000000000000000000000000000000000000000000000000000000000000000000000000000000000000000000000000000000000000000000000000000000000000000000000000000000000000000000000000000000000000000000000000000000000000000000000000000000000000000000000000000000000000000000",
      "type": "0x0",
      "transactionHash": "0x61aa0d9237ec1dc3457ddf4dfe5203fc8bbffc6276378de3de48d2bac36f6831",
      "transactionIndex": "0x22",
      "blockHash": "0xc444b28f687939c71fd8913e54fff413af44c0611f106fccedd89de933cd2453",
      "blockNumber": "0x60fb69",
      "gasUsed": "0x8003",
      "effectiveGasPrice": "0x5e7e6f0dd",
      "from": "0xa21039f3c7ba23c1fc14bbd59481e0e7f085c68d",
      "to": "0x9d29d33d4329640e96cc259e141838eb3eb2f1d9",
      "contractAddress": null
    },
    {
      "status": "0x1",
      "cumulativeGasUsed": "0x2a0a6a",
      "logs": [],
      "logsBloom": "0x00000000000000000000000000000000000000000000000000000000000000000000000000000000000000000000000000000000000000000000000000000000000000000000000000000000000000000000000000000000000000000000000000000000000000000000000000000000000000000000000000000000000000000000000000000000000000000000000000000000000000000000000000000000000000000000000000000000000000000000000000000000000000000000000000000000000000000000000000000000000000000000000000000000000000000000000000000000000000000000000000000000000000000000000000000000",
      "type": "0x0",
      "transactionHash": "0xb7c36fe33cb7159c058068953983e8a30ff9f3477292e6a9a97046479017a110",
      "transactionIndex": "0x23",
      "blockHash": "0xc444b28f687939c71fd8913e54fff413af44c0611f106fccedd89de933cd2453",
      "blockNumber": "0x60fb69",
      "gasUsed": "0x6c44",
      "effectiveGasPrice": "0x5e7e6f0dd",
      "from": "0xa21039f3c7ba23c1fc14bbd59481e0e7f085c68d",
      "to": "0x9d29d33d4329640e96cc259e141838eb3eb2f1d9",
      "contractAddress": null
    }
  ],
  "libraries": [],
  "pending": [],
  "returns": {},
  "timestamp": 1721646702,
  "chain": 11155111,
  "commit": "d8d8f58"
}