{
  "transactions": [
    {
      "hash": "0xe132d50325495b667e924951028ac1f3e791bf08e748a8ac742f6f519a788db5",
      "transactionType": "CALL",
      "contractName": null,
      "contractAddress": "0x9d29d33d4329640e96cc259e141838eb3eb2f1d9",
      "function": "flip(bool)",
      "arguments": [
        "false"
      ],
      "transaction": {
        "from": "0xa21039f3c7ba23c1fc14bbd59481e0e7f085c68d",
        "to": "0x9d29d33d4329640e96cc259e141838eb3eb2f1d9",
        "gas": "0xce2d",
        "value": "0x0",
        "input": "0x1d263f670000000000000000000000000000000000000000000000000000000000000000",
        "nonce": "0x29",
        "chainId": "0xaa36a7"
      },
      "additionalContracts": [],
      "isFixedGasLimit": false
    },
    {
      "hash": "0xedf725f7d24aa9c2d8db8a80e73b3fdbe4ff9ee9dbf5594b11577d147aed573b",
      "transactionType": "CREATE",
      "contractName": "Proxy",
      "contractAddress": "0xea744efd56f14c37b6fc524d145f072d355a012d",
      "function": null,
      "arguments": [
        "0x9D29D33d4329640e96cC259E141838EB3EB2f1d9"
      ],
      "transaction": {
        "from": "0xa21039f3c7ba23c1fc14bbd59481e0e7f085c68d",
        "gas": "0x25e68",
        "value": "0x0",
        "input": "0x608060405234801561001057600080fd5b506040516101283803806101288339818101604052602081101561003357600080fd5b5051600080546001600160a01b039092166001600160a01b031990921691909117905560c4806100646000396000f3fe6080604052348015600f57600080fd5b506004361060285760003560e01c80639dfbccfe14602d575b600080fd5b60336035565b005b60008054604080516335f9cd5560e11b815290516001600160a01b0390921692636bf39aaa9260048084019382900301818387803b158015607557600080fd5b505af11580156088573d6000803e3d6000fd5b5050505056fea26469706673582212207ff1811f4e660d63eda769435319577a8a39dbc3274c5726fa16ea16d545d78364736f6c634300070000330000000000000000000000009d29d33d4329640e96cc259e141838eb3eb2f1d9",
        "nonce": "0x2a",
        "chainId": "0xaa36a7"
      },
      "additionalContracts": [],
      "isFixedGasLimit": false
    },
    {
      "hash": "0x1334338750bfb4e0a06f389bb1b3f97e8b9991217159d1a04ba79348d8f8ae6f",
      "transactionType": "CALL",
      "contractName": "Proxy",
      "contractAddress": "0xea744efd56f14c37b6fc524d145f072d355a012d",
      "function": "addpoint()",
      "arguments": [],
      "transaction": {
        "from": "0xa21039f3c7ba23c1fc14bbd59481e0e7f085c68d",
        "to": "0xea744efd56f14c37b6fc524d145f072d355a012d",
        "gas": "0xb05f",
        "value": "0x0",
        "input": "0x9dfbccfe",
        "nonce": "0x2b",
        "chainId": "0xaa36a7"
      },
      "additionalContracts": [],
      "isFixedGasLimit": false
    },
    {
      "hash": "0x722b1045dc3af657433491b85d37b4b2a28645a92a824f25617b3b7ad103bd7e",
      "transactionType": "CALL",
      "contractName": null,
      "contractAddress": "0x9d29d33d4329640e96cc259e141838eb3eb2f1d9",
      "function": "transfer(address,uint256)",
      "arguments": [
        "0x0000000000000000000000000000000000000000",
        "123"
      ],
      "transaction": {
        "from": "0xa21039f3c7ba23c1fc14bbd59481e0e7f085c68d",
        "to": "0x9d29d33d4329640e96cc259e141838eb3eb2f1d9",
        "gas": "0xc4d0",
        "value": "0x0",
        "input": "0xa9059cbb0000000000000000000000000000000000000000000000000000000000000000000000000000000000000000000000000000000000000000000000000000007b",
        "nonce": "0x2c",
        "chainId": "0xaa36a7"
      },
      "additionalContracts": [],
      "isFixedGasLimit": false
    },
    {
      "hash": "0x4ffa1dbd4f0ef31817fd2f9f728ce57273404b140f93018ebf5f23caa34e3739",
      "transactionType": "CREATE",
      "contractName": "ExploitBuilding",
      "contractAddress": "0x3706157e707e9c219420b6df060250fc8f823899",
      "function": null,
      "arguments": [
        "0x9D29D33d4329640e96cC259E141838EB3EB2f1d9"
      ],
      "transaction": {
        "from": "0xa21039f3c7ba23c1fc14bbd59481e0e7f085c68d",
        "gas": "0x3627b",
        "value": "0x0",
        "input": "0x60806040526000805460ff60a01b1916905534801561001d57600080fd5b506040516102223803806102228339818101604052602081101561004057600080fd5b5051600080546001600160a01b039092166001600160a01b03199092169190911790556101b0806100726000396000f3fe608060405234801561001057600080fd5b506004361061004c5760003560e01c806335f738a7146100515780635f9a4bca1461006d57806399cb4fbc1461008a578063f95c9b1b146100ae575b600080fd5b6100596100b8565b604080519115158252519081900360200190f35b6100596004803603602081101561008357600080fd5b50356100c8565b610092610109565b604080516001600160a01b039092168252519081900360200190f35b6100b6610118565b005b600054600160a01b900460ff1681565b60008054600160a01b900460ff166100f357506000805460ff60a01b1916600160a01b178155610104565b506000805460ff60a01b1916905560015b919050565b6000546001600160a01b031681565b6000805460408051633b669c4d60e21b81526001600482015290516001600160a01b039092169263ed9a71349260248084019382900301818387803b15801561016057600080fd5b505af1158015610174573d6000803e3d6000fd5b5050505056fea264697066735822122094161002be9113b574ae909bcb62f8f70907b0483412aadef9494564490bbfd764736f6c634300070000330000000000000000000000009d29d33d4329640e96cc259e141838eb3eb2f1d9",
        "nonce": "0x2d",
        "chainId": "0xaa36a7"
      },
      "additionalContracts": [],
      "isFixedGasLimit": false
    },
    {
      "hash": "0x0f8e81f75a34bf0a34c0c73279ac1d4fc74faab6652b885325c843cfa47e5a22",
      "transactionType": "CALL",
      "contractName": "ExploitBuilding",
      "contractAddress": "0x3706157e707e9c219420b6df060250fc8f823899",
      "function": "exploitGoTo()",
      "arguments": [],
      "transaction": {
        "from": "0xa21039f3c7ba23c1fc14bbd59481e0e7f085c68d",
        "to": "0x3706157e707e9c219420b6df060250fc8f823899",
        "gas": "0x22afd",
        "value": "0x0",
        "input": "0xf95c9b1b",
        "nonce": "0x2e",
        "chainId": "0xaa36a7"
      },
      "additionalContracts": [],
      "isFixedGasLimit": false
    },
    {
      "hash": "0x5c304be904c3c51beadee8c2e4502de1f438c846fd5845baaddfbc3b55b6613a",
      "transactionType": "CALL",
      "contractName": null,
      "contractAddress": "0x9d29d33d4329640e96cc259e141838eb3eb2f1d9",
      "function": "sendKey(bytes16)",
      "arguments": [
        "0x4cded594c37730434fcf53dd25e29ab500000000000000000000000000000000"
      ],
      "transaction": {
        "from": "0xa21039f3c7ba23c1fc14bbd59481e0e7f085c68d",
        "to": "0x9d29d33d4329640e96cc259e141838eb3eb2f1d9",
        "gas": "0xa187",
        "value": "0x0",
        "input": "0x9d3ad91a4cded594c37730434fcf53dd25e29ab500000000000000000000000000000000",
        "nonce": "0x2f",
        "chainId": "0xaa36a7"
      },
      "additionalContracts": [],
      "isFixedGasLimit": false
    },
    {
      "hash": "0x87c30e08d06cb0c0e1f5d9ac9e9c7667776ad2ad7d2cf797867d93f8a867bfa6",
      "transactionType": "CALL",
      "contractName": null,
      "contractAddress": "0x9d29d33d4329640e96cc259e141838eb3eb2f1d9",
      "function": "sendPassword(bytes32)",
      "arguments": [
        "0xde241fe7f783f2ed343248c0762dade0cf4eea6ed49dfe2f9f1267483c9eade8"
      ],
      "transaction": {
        "from": "0xa21039f3c7ba23c1fc14bbd59481e0e7f085c68d",
        "to": "0x9d29d33d4329640e96cc259e141838eb3eb2f1d9",
        "gas": "0x9914",
        "value": "0x0",
        "input": "0x5c8d2c38de241fe7f783f2ed343248c0762dade0cf4eea6ed49dfe2f9f1267483c9eade8",
        "nonce": "0x30",
        "chainId": "0xaa36a7"
      },
      "additionalContracts": [],
      "isFixedGasLimit": false
    },
    {
      "hash": "0x5456fea0d6abebce63309f7ac24577b879535d7d66b5fe79bcbee0279ae40915",
      "transactionType": "CALL",
      "contractName": null,
      "contractAddress": "0x9d29d33d4329640e96cc259e141838eb3eb2f1d9",
      "function": "contribute()",
      "arguments": [],
      "transaction": {
        "from": "0xa21039f3c7ba23c1fc14bbd59481e0e7f085c68d",
        "to": "0x9d29d33d4329640e96cc259e141838eb3eb2f1d9",
        "gas": "0xbb37",
        "value": "0x3328b944c4000",
        "input": "0xd7bb99ba",
        "nonce": "0x31",
        "chainId": "0xaa36a7"
      },
      "additionalContracts": [],
      "isFixedGasLimit": false
    },
    {
      "hash": "0x8f123a2004b6145ccb068745e6985843a10370dd92bc5c4215fd96c43fba58a4",
      "transactionType": "CALL",
      "contractName": null,
      "contractAddress": "0x9d29d33d4329640e96cc259e141838eb3eb2f1d9",
      "function": null,
      "arguments": null,
      "transaction": {
        "from": "0xa21039f3c7ba23c1fc14bbd59481e0e7f085c68d",
        "to": "0x9d29d33d4329640e96cc259e141838eb3eb2f1d9",
        "gas": "0x958a",
        "value": "0x38d7ea4c68000",
        "input": "0x",
        "nonce": "0x32",
        "chainId": "0xaa36a7"
      },
      "additionalContracts": [],
      "isFixedGasLimit": false
    }
  ],
  "receipts": [
    {
      "status": "0x1",
      "cumulativeGasUsed": "0x1600f17",
      "logs": [],
      "logsBloom": "0x00000000000000000000000000000000000000000000000000000000000000000000000000000000000000000000000000000000000000000000000000000000000000000000000000000000000000000000000000000000000000000000000000000000000000000000000000000000000000000000000000000000000000000000000000000000000000000000000000000000000000000000000000000000000000000000000000000000000000000000000000000000000000000000000000000000000000000000000000000000000000000000000000000000000000000000000000000000000000000000000000000000000000000000000000000000",
      "type": "0x0",
      "transactionHash": "0xedf725f7d24aa9c2d8db8a80e73b3fdbe4ff9ee9dbf5594b11577d147aed573b",
      "transactionIndex": "0x9b",
      "blockHash": "0x0ccd3b3541efa3f80dfcc3366762870373497a9856ea0d734818901c3f44228b",
      "blockNumber": "0x60fb54",
      "gasUsed": "0x1d28e",
      "effectiveGasPrice": "0x5c66fdf6b",
      "from": "0xa21039f3c7ba23c1fc14bbd59481e0e7f085c68d",
      "to": null,
      "contractAddress": "0xea744efd56f14c37b6fc524d145f072d355a012d"
    },
    {
      "status": "0x1",
      "cumulativeGasUsed": "0x16087b0",
      "logs": [],
      "logsBloom": "0x00000000000000000000000000000000000000000000000000000000000000000000000000000000000000000000000000000000000000000000000000000000000000000000000000000000000000000000000000000000000000000000000000000000000000000000000000000000000000000000000000000000000000000000000000000000000000000000000000000000000000000000000000000000000000000000000000000000000000000000000000000000000000000000000000000000000000000000000000000000000000000000000000000000000000000000000000000000000000000000000000000000000000000000000000000000",
      "type": "0x0",
      "transactionHash": "0x1334338750bfb4e0a06f389bb1b3f97e8b9991217159d1a04ba79348d8f8ae6f",
      "transactionIndex": "0x9c",
      "blockHash": "0x0ccd3b3541efa3f80dfcc3366762870373497a9856ea0d734818901c3f44228b",
      "blockNumber": "0x60fb54",
      "gasUsed": "0x7899",
      "effectiveGasPrice": "0x5c66fdf6b",
      "from": "0xa21039f3c7ba23c1fc14bbd59481e0e7f085c68d",
      "to": "0xea744efd56f14c37b6fc524d145f072d355a012d",
      "contractAddress": null
    },
    {
      "status": "0x1",
      "cumulativeGasUsed": "0x161162e",
      "logs": [],
      "logsBloom": "0x00000000000000000000000000000000000000000000000000000000000000000000000000000000000000000000000000000000000000000000000000000000000000000000000000000000000000000000000000000000000000000000000000000000000000000000000000000000000000000000000000000000000000000000000000000000000000000000000000000000000000000000000000000000000000000000000000000000000000000000000000000000000000000000000000000000000000000000000000000000000000000000000000000000000000000000000000000000000000000000000000000000000000000000000000000000",
      "type": "0x0",
      "transactionHash": "0x722b1045dc3af657433491b85d37b4b2a28645a92a824f25617b3b7ad103bd7e",
      "transactionIndex": "0x9d",
      "blockHash": "0x0ccd3b3541efa3f80dfcc3366762870373497a9856ea0d734818901c3f44228b",
      "blockNumber": "0x60fb54",
      "gasUsed": "0x8e7e",
      "effectiveGasPrice": "0x5c66fdf6b",
      "from": "0xa21039f3c7ba23c1fc14bbd59481e0e7f085c68d",
      "to": "0x9d29d33d4329640e96cc259e141838eb3eb2f1d9",
      "contractAddress": null
    },
    {
      "status": "0x1",
      "cumulativeGasUsed": "0x163b0da",
      "logs": [],
      "logsBloom": "0x00000000000000000000000000000000000000000000000000000000000000000000000000000000000000000000000000000000000000000000000000000000000000000000000000000000000000000000000000000000000000000000000000000000000000000000000000000000000000000000000000000000000000000000000000000000000000000000000000000000000000000000000000000000000000000000000000000000000000000000000000000000000000000000000000000000000000000000000000000000000000000000000000000000000000000000000000000000000000000000000000000000000000000000000000000000",
      "type": "0x0",
      "transactionHash": "0x4ffa1dbd4f0ef31817fd2f9f728ce57273404b140f93018ebf5f23caa34e3739",
      "transactionIndex": "0x9e",
      "blockHash": "0x0ccd3b3541efa3f80dfcc3366762870373497a9856ea0d734818901c3f44228b",
      "blockNumber": "0x60fb54",
      "gasUsed": "0x29aac",
      "effectiveGasPrice": "0x5c66fdf6b",
      "from": "0xa21039f3c7ba23c1fc14bbd59481e0e7f085c68d",
      "to": null,
      "contractAddress": "0x3706157e707e9c219420b6df060250fc8f823899"
    },
    {
      "status": "0x1",
      "cumulativeGasUsed": "0x16542a8",
      "logs": [],
      "logsBloom": "0x00000000000000000000000000000000000000000000000000000000000000000000000000000000000000000000000000000000000000000000000000000000000000000000000000000000000000000000000000000000000000000000000000000000000000000000000000000000000000000000000000000000000000000000000000000000000000000000000000000000000000000000000000000000000000000000000000000000000000000000000000000000000000000000000000000000000000000000000000000000000000000000000000000000000000000000000000000000000000000000000000000000000000000000000000000000",
      "type": "0x0",
      "transactionHash": "0x0f8e81f75a34bf0a34c0c73279ac1d4fc74faab6652b885325c843cfa47e5a22",
      "transactionIndex": "0x9f",
      "blockHash": "0x0ccd3b3541efa3f80dfcc3366762870373497a9856ea0d734818901c3f44228b",
      "blockNumber": "0x60fb54",
      "gasUsed": "0x191ce",
      "effectiveGasPrice": "0x5c66fdf6b",
      "from": "0xa21039f3c7ba23c1fc14bbd59481e0e7f085c68d",
      "to": "0x3706157e707e9c219420b6df060250fc8f823899",
      "contractAddress": null
    },
    {
      "status": "0x1",
      "cumulativeGasUsed": "0x165b11b",
      "logs": [],
      "logsBloom": "0x00000000000000000000000000000000000000000000000000000000000000000000000000000000000000000000000000000000000000000000000000000000000000000000000000000000000000000000000000000000000000000000000000000000000000000000000000000000000000000000000000000000000000000000000000000000000000000000000000000000000000000000000000000000000000000000000000000000000000000000000000000000000000000000000000000000000000000000000000000000000000000000000000000000000000000000000000000000000000000000000000000000000000000000000000000000",
      "type": "0x0",
      "transactionHash": "0x5c304be904c3c51beadee8c2e4502de1f438c846fd5845baaddfbc3b55b6613a",
      "transactionIndex": "0xa0",
      "blockHash": "0x0ccd3b3541efa3f80dfcc3366762870373497a9856ea0d734818901c3f44228b",
      "blockNumber": "0x60fb54",
      "gasUsed": "0x6e73",
      "effectiveGasPrice": "0x5c66fdf6b",
      "from": "0xa21039f3c7ba23c1fc14bbd59481e0e7f085c68d",
      "to": "0x9d29d33d4329640e96cc259e141838eb3eb2f1d9",
      "contractAddress": null
    },
    {
      "status": "0x1",
      "cumulativeGasUsed": "0x1661fef",
      "logs": [],
      "logsBloom": "0x00000000000000000000000000000000000000000000000000000000000000000000000000000000000000000000000000000000000000000000000000000000000000000000000000000000000000000000000000000000000000000000000000000000000000000000000000000000000000000000000000000000000000000000000000000000000000000000000000000000000000000000000000000000000000000000000000000000000000000000000000000000000000000000000000000000000000000000000000000000000000000000000000000000000000000000000000000000000000000000000000000000000000000000000000000000",
      "type": "0x0",
      "transactionHash": "0x87c30e08d06cb0c0e1f5d9ac9e9c7667776ad2ad7d2cf797867d93f8a867bfa6",
      "transactionIndex": "0xa1",
      "blockHash": "0x0ccd3b3541efa3f80dfcc3366762870373497a9856ea0d734818901c3f44228b",
      "blockNumber": "0x60fb54",
      "gasUsed": "0x6ed4",
      "effectiveGasPrice": "0x5c66fdf6b",
      "from": "0xa21039f3c7ba23c1fc14bbd59481e0e7f085c68d",
      "to": "0x9d29d33d4329640e96cc259e141838eb3eb2f1d9",
      "contractAddress": null
    },
    {
      "status": "0x1",
      "cumulativeGasUsed": "0x1669ff2",
      "logs": [],
      "logsBloom": "0x00000000000000000000000000000000000000000000000000000000000000000000000000000000000000000000000000000000000000000000000000000000000000000000000000000000000000000000000000000000000000000000000000000000000000000000000000000000000000000000000000000000000000000000000000000000000000000000000000000000000000000000000000000000000000000000000000000000000000000000000000000000000000000000000000000000000000000000000000000000000000000000000000000000000000000000000000000000000000000000000000000000000000000000000000000000",
      "type": "0x0",
      "transactionHash": "0x5456fea0d6abebce63309f7ac24577b879535d7d66b5fe79bcbee0279ae40915",
      "transactionIndex": "0xa2",
      "blockHash": "0x0ccd3b3541efa3f80dfcc3366762870373497a9856ea0d734818901c3f44228b",
      "blockNumber": "0x60fb54",
      "gasUsed": "0x8003",
      "effectiveGasPrice": "0x5c66fdf6b",
      "from": "0xa21039f3c7ba23c1fc14bbd59481e0e7f085c68d",
      "to": "0x9d29d33d4329640e96cc259e141838eb3eb2f1d9",
      "contractAddress": null
    },
    {
      "status": "0x1",
      "cumulativeGasUsed": "0x1670c36",
      "logs": [],
      "logsBloom": "0x00000000000000000000000000000000000000000000000000000000000000000000000000000000000000000000000000000000000000000000000000000000000000000000000000000000000000000000000000000000000000000000000000000000000000000000000000000000000000000000000000000000000000000000000000000000000000000000000000000000000000000000000000000000000000000000000000000000000000000000000000000000000000000000000000000000000000000000000000000000000000000000000000000000000000000000000000000000000000000000000000000000000000000000000000000000",
      "type": "0x0",
      "transactionHash": "0x8f123a2004b6145ccb068745e6985843a10370dd92bc5c4215fd96c43fba58a4",
      "transactionIndex": "0xa3",
      "blockHash": "0x0ccd3b3541efa3f80dfcc3366762870373497a9856ea0d734818901c3f44228b",
      "blockNumber": "0x60fb54",
      "gasUsed": "0x6c44",
      "effectiveGasPrice": "0x5c66fdf6b",
      "from": "0xa21039f3c7ba23c1fc14bbd59481e0e7f085c68d",
      "to": "0x9d29d33d4329640e96cc259e141838eb3eb2f1d9",
      "contractAddress": null
    }
  ],
  "libraries": [],
  "pending": [],
  "returns": {},
  "timestamp": 1721646388,
  "chain": 11155111,
  "commit": "d8d8f58"
}