{
  "transactions": [
    {
      "hash": "0x81732caf31c05a251b9ae00355cde3a61dfddd1c0dfb2b8edaa1feb5c6789931",
      "transactionType": "CALL",
      "contractName": null,
      "contractAddress": "0x9d29d33d4329640e96cc259e141838eb3eb2f1d9",
      "function": "flip(bool)",
      "arguments": [
        "false"
      ],
      "transaction": {
        "from": "0xa21039f3c7ba23c1fc14bbd59481e0e7f085c68d",
        "to": "0x9d29d33d4329640e96cc259e141838eb3eb2f1d9",
        "gas": "0xce2d",
        "value": "0x0",
        "input": "0x1d263f670000000000000000000000000000000000000000000000000000000000000000",
        "nonce": "0x26",
        "chainId": "0xaa36a7"
      },
      "additionalContracts": [],
      "isFixedGasLimit": false
    }
  ],
  "receipts": [
    {
      "status": "0x1",
      "cumulativeGasUsed": "0x61ef39",
      "logs": [],
      "logsBloom": "0x00000000000000000000000000000000000000000000000000000000000000000000000000000000000000000000000000000000000000000000000000000000000000000000000000000000000000000000000000000000000000000000000000000000000000000000000000000000000000000000000000000000000000000000000000000000000000000000000000000000000000000000000000000000000000000000000000000000000000000000000000000000000000000000000000000000000000000000000000000000000000000000000000000000000000000000000000000000000000000000000000000000000000000000000000000000",
      "type": "0x0",
      "transactionHash": "0x81732caf31c05a251b9ae00355cde3a61dfddd1c0dfb2b8edaa1feb5c6789931",
      "transactionIndex": "0x2c",
      "blockHash": "0x396139efd33f86c1039a500ec7aba5134bc23f8f86a30143914aa049aa175a9c",
      "blockNumber": "0x60fb44",
      "gasUsed": "0x8cfa",
      "effectiveGasPrice": "0x5ff65118d",
      "from": "0xa21039f3c7ba23c1fc14bbd59481e0e7f085c68d",
      "to": "0x9d29d33d4329640e96cc259e141838eb3eb2f1d9",
      "contractAddress": null
    }
  ],
  "libraries": [],
  "pending": [],
  "returns": {},
  "timestamp": 1721646137,
  "chain": 11155111,
  "commit": "d8d8f58"
}