{
  "transactions": [
    {
      "hash": "0x025f8077295b6ea7c03c2740e3163300dc6f7936f88f7a38d8cfa1de79837d04",
      "transactionType": "CALL",
      "contractName": null,
      "contractAddress": "0x9d29d33d4329640e96cc259e141838eb3eb2f1d9",
      "function": "flip(bool)",
      "arguments": [
        "false"
      ],
      "transaction": {
        "from": "0xa21039f3c7ba23c1fc14bbd59481e0e7f085c68d",
        "to": "0x9d29d33d4329640e96cc259e141838eb3eb2f1d9",
        "gas": "0x16c68",
        "value": "0x0",
        "input": "0x1d263f670000000000000000000000000000000000000000000000000000000000000000",
        "nonce": "0x53",
        "chainId": "0xaa36a7"
      },
      "additionalContracts": [],
      "isFixedGasLimit": false
    }
  ],
  "receipts": [
    {
      "status": "0x1",
      "cumulativeGasUsed": "0x1584bb",
      "logs": [],
      "logsBloom": "0x00000000000000000000000000000000000000000000000000000000000000000000000000000000000000000000000000000000000000000000000000000000000000000000000000000000000000000000000000000000000000000000000000000000000000000000000000000000000000000000000000000000000000000000000000000000000000000000000000000000000000000000000000000000000000000000000000000000000000000000000000000000000000000000000000000000000000000000000000000000000000000000000000000000000000000000000000000000000000000000000000000000000000000000000000000000",
      "type": "0x0",
      "transactionHash": "0x025f8077295b6ea7c03c2740e3163300dc6f7936f88f7a38d8cfa1de79837d04",
      "transactionIndex": "0x24",
      "blockHash": "0xc2be78b022b625e3e8c7fdbceebae5a188a208c79e484a59a2eb7a8c9f96b3fa",
      "blockNumber": "0x60fb8b",
      "gasUsed": "0xf92b",
      "effectiveGasPrice": "0x7b4ccebb0",
      "from": "0xa21039f3c7ba23c1fc14bbd59481e0e7f085c68d",
      "to": "0x9d29d33d4329640e96cc259e141838eb3eb2f1d9",
      "contractAddress": null
    }
  ],
  "libraries": [],
  "pending": [],
  "returns": {},
  "timestamp": 1721647261,
  "chain": 11155111,
  "commit": "d8d8f58"
}